:1000000068200020250100002101000021010000DE
:1000100000000000000000000000000000000000E0
:1000200000000000000000000000000021010000AE
:10003000000000000000000021010000050F00008A
:100040002101000021010000210100002101000028
:100050002101000021010000210100002101000018
:100060002101000021010000210100002101000008
:1000700021010000210100002101000021010000F8
:100080002101000021010000C10E0000210100003B
:10009000210100000000000000000000210100001C
:1000A00021010000210100002101000021010000C8
:1000B0000000000010B5064C2378002B07D1054B3B
:1000C000002B02D0044800E000BF0123237010BDC4
:1000D00000000020000000005C100000084B10B57C
:1000E000002B03D00749084800E000BF0748036819
:1000F000002B00D110BD064B002BFBD09847F9E731
:1001000000000000040000205C1000005C100000F3
:100110000000000010B5014B984710BD9D03000082
:10012000FEE70000F8B52A4A2A4B9A4211D01A007D
:10013000294B9A420DD2294A03339B1A9B0801335B
:100140009B000022234822498C58845004329A4252
:10015000FAD1234A234B9A420AD2D34321495B184E
:1001600003218B4304339B18002102C29342FCD12C
:100170001D4AFF211D4B8B439360FD3990235B008B
:100180001B4AD1501B4AD3780325AB430224234397
:10019000D370D3780C27BB4308263343D370164B58
:1001A000987B30229043202210439873997BB94367
:1001B000314399739A7BAA4322439A730F4A536837
:1001C00080210B4353600E4B98470E4B9847FEE738
:1001D0005C1000000000002000000020040000204F
:1001E000000000206400002000ED00E0000000009E
:1001F00000700041005000410048004100400041B3
:10020000150F0000E10E0000F0B5C024E4058022C7
:100210005202A260224B8020C00598622149996257
:10022000626150215A5C0125AC46AA4301273A433A
:10023000D2B25A5418395A5C0E35AA430D3D2A439E
:100240005A5480229202A2609862174898626261B2
:1002500051201A5C6546AA433A43D2B21A54585CFC
:100260000F26304020252843C0B258548022120364
:1002700062600E4A9A620E4A9A625322995C042086
:1002800081439954995C604681433943C9B299547A
:1002900039215A5C32402A43D2B25A54F0BDC0468A
:1002A00000440041010000C0020000C00000024004
:1002B000080002C0044A136A08210B431362034A70
:1002C000034B5A807047C0460004004015400000B0
:1002D000000C004010B5044B984704490448054BF6
:1002E0009847054B984710BDB5020000000C00422E
:1002F000280000203D0500000902000030B50E4B2B
:100300004A22995C0125A94301242143C9B2995489
:100310003520195C3B3A91430C3A114319544B2157
:100320005A5CAA432243D2B25A541A5C3C390A405E
:1003300021310A431A5430BD00440041044A136A73
:1003400010210B431362034A034B5A807047C04687
:100350000004004016400000000C004010B5054BA2
:100360009847002204490548054B9847054B984794
:1003700010BDC0463D030000001000423C000020BC
:1003800069080000FD02000010B50248024B9847C2
:1003900010BDC04610E000E029050000F8B54C4B48
:1003A0009847C022D205402555604A4B4A49996278
:1003B0004A4E9E6255604620195C04242143C9B20E
:1003C000195495611D5C01218D431D5480277F00C8
:1003D0005760434898629E6257604825585D2043A5
:1003E000C0B258559761585D884358550137FF375B
:1003F00057603C4898629E6257600135585D2043C3
:10040000C0B258559761585D884358558020C00246
:1004100090608026F6059E62334D9D629061522564
:10042000585D8843585580277F0357602F4884467E
:1004300098622F48986257600235585D2043C0B2D9
:1004400058559761585D884358558027BF035760BA
:10045000604698622748986257600135585D20438E
:10046000C0B258559761585D8843585580200005A3
:1004700090609E62204C9C6290615B24185D884372
:10048000185508202D34105120341C4D1D51C02505
:100490002D061D51103C1051BB301A5C8A431A5472
:1004A000174B9847174B9847174B9847174A116AAD
:1004B00080231B010B431362154A164B5A80164BBF
:1004C0009847020015491648164B9847F8BDC04694
:1004D000250900000044004140000240000002C025
:1004E0000001024000020240040000C0000002407F
:1004F000100002C0200002C0000800C00800004038
:10050000D50200005D0300008903000000040040E4
:100510001B420000000C0040BD0E0000002C0042F9
:10052000480000204D07000010B5024B1860024B38
:10053000984710BD1C000020A50D000070B50400F8
:100540000D00002816D00800431E9841C0B2422278
:1005500009490A4B9847256029002000084B984715
:10056000002806DB074B2382074BE360074BA360A1
:10057000002070BD0020EAE75C0F0000B508000015
:10058000750A00000080FFFF15060000D905000075
:1005900030B587B004000D00002814D00800431EB9
:1005A0009841C0B2BD220949094B98472B68039373
:1005B0006B680493AB680193059303A92000054B76
:1005C000984707B030BD0020ECE7C0465C0F000044
:1005D000B5080000C90B000070B584B004000E001F
:1005E0001500431E9841C0B2AD220749074B9847FA
:1005F00000230293019603952000083801A9044BBB
:10060000984704B070BDC0465C0F0000B5080000FC
:100610009105000070B584B004000E001500431E63
:100620009841C0B291220749074B98470296002390
:10063000019303952000083801A9044B984704B0A2
:1006400070BDC0465C0F0000B508000091050000B9
:10065000F8B5CE46474680B5814603689C46002BD8
:1006600005D08E681C0000250127BF1A0DE0124B33
:10067000984718E0FB18A06880464344B3420CD268
:1006800023682500002B0BD01C0063689342F1D82F
:10069000A068804643449B1AF0E7A44507D02C008D
:1006A0002000064B98470CBC90469946F8BD48463A
:1006B000014B9847F7E7C046E10800000D0900002C
:1006C000F0B5C64600B582B007004469036901333E
:1006D00098460361037EDB0711D4037E9B070ED48B
:1006E000002C10D0434662689B1AA26893420AD33A
:1006F00014239C46844463460193124E14E03B7ECF
:10070000022213433B7602B004BC9046F0BD7D69E3
:10071000E36820009847002DF5D02C0043466A6816
:100720009B1AAA689342EED30198B047237C012B11
:10073000EDD143466360424621000198024B984741
:10074000E5E7C046150900005106000070B5050038
:100750000C00002811D00800431E9841C0B2452269
:100760000749084B984721002800074B984700236A
:100770002B61064B2B60002070BD0020EFE7C046C8
:10078000780F0000B5080000B90D0000C106000098
:10079000F8B5CE46474680B504000F0090460028C5
:1007A00021D0002921D01000431E9841FB2210497E
:1007B000104B98470834104D2000A8470028FBD064
:1007C00000260E4B99460C4DB95D2000C84720000D
:1007D000A8470028FBD001364645F5D330000CBCB5
:1007E00090469946F8BD0020E0E70020DEE7C046CD
:1007F000900F0000B5080000610A0000510A0000D7
:10080000F8B5CE46474680B504000F009046002854
:100810001DD000291DD01000431E98411622FF3222
:100820000D490E4B9847002608340D4D0D4B994647
:100830002000A8470028FBD02000C847B855013643
:100840004645F5D330000CBC90469946F8BD0020D3
:10085000E4E70020E2E7C046900F0000B508000082
:100860006B0A0000590A000070B505000C00002852
:1008700013D00800431E9841C0B23E220849094BDC
:100880009847280008302100074B9847002803D1DB
:10089000064B6B60064B2B6070BD0020EDE7C04639
:1008A000900F0000B5080000250A000001080000B4
:1008B00091070000002800D100BE70470368002B9C
:1008C0000AD08B420AD01B68002B03D09942FAD180
:1008D000012000E0002070470020FCE70120FAE73B
:1008E00070B504000D00064B984701235840C0B274
:1008F00043220449044B984723682B60256070BD50
:10090000BD080000AC0F0000B508000003680B60D4
:10091000016070470368002B01D01A68026018005C
:100920007047000010B5064B5A685A60054B98474F
:10093000054B9847054B9847054B984710BDC04657
:100940000040004189090000D90C00005509000051
:10095000210D0000074B802252009A60064A5A601F
:10096000064A9A60064A5A60812252009A60054AF5
:100970005A607047000C0040000701000120000091
:100980000106010002060100064B1A7AD2B21A7261
:100990005A7AD2B25A729A7AD2B29A72DA7AD2B2B7
:1009A000DA7270470004004010B50400194BC318F8
:1009B0009B0ADBB2022B05D091229200164900203F
:1009C000164B98470122E3691A42FCD10322E369DE
:1009D0001A42FCD123689B0718D40122E3691A420A
:1009E000FCD12368012213432360E3691A42FCD13E
:1009F0000B4B2360C0239B026360D2235B42A38125
:100A00000023A3733022A354002010BD11204042C4
:100A1000FBE7C04600F8FFBDF80F0000B508000076
:100A20000400314070B505000C00431E9841C0B26F
:100A3000BF220449044B98472C602000034B984781
:100A400070BDC046F80F0000B5080000A9090000FD
:100A5000036889B2198570470368188DC0B2704762
:100A60000368187E0123184070470368187E40070A
:100A7000C00F704770B506000C00494BCB189B0A9D
:100A8000DBB2012B08D0002800D179E0002900D08A
:100A90007EE00025002006E000284DD0002948D047
:100AA000404D18350120404A4049414B9847002DA0
:100AB00060D00122E3691A42FCD10322E3691A42A1
:100AC000FCD123689B0758D40122E3691A42FCD168
:100AD0002368012213432360E3691A42FCD1346086
:100AE0001C232A681340082B29D02000431E98415C
:100AF000C0B28E2212012D492D4B98472D4B2A68EA
:100B0000134023602C4A6B681A4080239B021343D6
:100B100063602B7B23736A7B3023E25407236A686C
:100B200013405A1E934101333371EB89F380002047
:100B300070BD1C4D1835ADE71A4D1835AAE72000D9
:100B4000431E9841C0B21D4A1849194B9847194B8A
:100B50002A68134023601A4A6B681A40194B1343E2
:100B60006360AB6863626A7B3023E254E369002B05
:100B7000FCD1D3E70D204042DAE711204042D7E70D
:100B8000094A0A4900200A4B98470D204042CFE706
:100B9000054A06490120064B98470D204042C7E709
:100BA00000F8FFBDCC0F000016090000F80F000090
:100BB000B5080000FCFEFFFFBF1DFDFFF4080000AC
:100BC000BFDDFDFF40020200F0B5DE4657464E464F
:100BD0004546E0B583B081460E0004680B68984630
:100BE0004D6803790193002815D02000431E9841D9
:100BF000C0B2364A3649374B9847E3695B073FD165
:100C00000323E0691840FCD123689B073BD5020011
:100C100001239C4609E00020EBE7013501325BB27D
:100C2000002B16DBB368834227D9237EDBB2042175
:100C300019422BD0A76A002DF0D02F7001990129FD
:100C4000EBD93F0A6F700235E8E701218B46D844A3
:100C500037E001235B4263838133237613204042D4
:100C60000322237E1342FCD00323237603B03CBC33
:100C700090469946A246AB46F0BD9342D5D8EFE7E1
:100C800004204042F2E714204042EFE79042C6D8E9
:100C900067461F42C3D04F46FF88BA464746002FDB
:100CA0000FD03F78BA4601990129CED947467F78BF
:100CB0003F02BB46574659460F43BA4602218B4670
:100CC000D84401305746A762A9E7C046720A00001F
:100CD000F80F0000B508000010B50E4B1A6A186A2C
:100CE0000D491140800F80070C4C204301431962CD
:100CF0009969022001439961D202D20E1A77190034
:100D00000822CB681A42FCD0024A136A80210B43A6
:100D1000136210BD000800400000FF0F0203000036
:100D200002221C4B9A8419000E32CB681A42FCD066
:100D3000194A184BDA62194B1B689B0E3F2B1FD0C8
:100D40009B02802292001343124A936202239384EF
:100D5000938C5B0717D51100D022CB681340D02BA2
:100D6000FBD10C4A938C80210B4393840C4A53781B
:100D7000DB09FCD1074A936902218B4393617047D9
:100D8000FC23DB01E0E703491022CB681A42FCD0C8
:100D9000E7E7C0460008004000000104246080002E
:100DA000000C0040024B034A5A6005221A6070474B
:100DB00010E000E0FFFFFF00F8B507000C00384B23
:100DC000CD18AD0AEDB2002D47D04622FF3235498D
:100DD0000020354B984701267642FC60932231492A
:100DE0000120314B9847E37BDB09FCD123889B072B
:100DF00053D42388012213432380E37BDB09FCD1F6
:100E0000B3009B199A00294B9B185A8822801879A5
:100E10002072DB8863810C231340082B1FD0002B2A
:100E200027D1B3009B199B00204AD3189B892383A9
:100E300000236383012363731D4B9C422AD0123528
:100E40001F231D401E3BAB401A4A802153500131E5
:100E5000FF31535013600020F8BD0026BDE7B300FA
:100E60009E19B600114B9E19F368A3610023E3613C
:100E7000E0E7042BDED10D48B3009A1992008218E6
:100E8000127B2276002262769B199B00C3181B7A84
:100E90002375CFE7084B1F60D1E711204042DBE705
:100EA00000D4FFBD28100000B50800001410000099
:100EB000002C004200E100E02000002000207047EC
:100EC00010B5064B1868C3689A7BD20700D410BDD2
:100ED00001229A7303689847F9E7C0462000002072
:100EE00010B5074B9847C023DB0508219422995081
:100EF000802212055A619C201950DA61FCE7C04635
:100F000015010000024A1368013313607047C046A0
:100F10002400002070B500260C4D0D4C641BA4105D
:100F2000A64209D1002600F089F80A4D0A4C641B3C
:100F3000A410A64205D170BDB300EB589847013606
:100F4000EEE7B300EB5898470136F2E7481000008F
:100F500048100000481000004C1000002E2E2F6892
:100F6000616C2F7372632F68616C5F7370695F6D62
:100F70005F73796E632E63002E2E2F68616C2F7362
:100F800072632F68616C5F74696D65722E63000017
:100F90002E2E2F68616C2F7372632F68616C5F75E2
:100FA000736172745F73796E632E63002E2E2F68E7
:100FB000616C2F7574696C732F7372632F7574690C
:100FC0006C735F6C6973742E630000000000000096
:100FD0000000000000000000000000000000000011
:100FE000000000000C0030000000020000000000C3
:100FF0001700FF01010000002E2E2F68706C2F7368
:101000006572636F6D2F68706C5F736572636F6D6F
:101010002E630000030068010000000000000000D3
:1010200032000000000000002E2E2F68706C2F741C
:10103000632F68706C5F74632E630000F8B5C04660
:10104000F8BC08BC9E467047DD000000F8B5C046FD
:0C105000F8BC08BC9E467047B5000000CC
:00000001FF
