S0180000467269747A52545F4272696E677570302E73726563F1
S1130000A82200202901000025010000250100008C
S113001000000000000000000000000000000000DC
S113002000000000000000000000000025010000A6
S11300300000000000000000250100002501000070
S11300402501000025010000250100002501000014
S1130050250100002501000025010000611B0000AE
S113006025010000250100002501000025010000F4
S113007025010000250100002501000025010000E4
S113008025010000250100002501000025010000D4
S11300902501000000000000000000002501000010
S11300A025010000250100002501000025010000B4
S11300B00000000010B5064C2378002B07D1054B37
S11300C0002B02D0044800E000BF0123237010BDC0
S11300D00000002000000000001F0000084B10B5C5
S11300E0002B03D00749084800E000BF0748036815
S11300F0002B00D110BD064B002BFBD09847F9E72D
S11301000000000004000020001F0000001F000089
S1130110000000007047000010B5014B984710BD67
S11301206D040000FEE70000F8B52A4A2A4B9A4203
S113013011D01A00294B9A420DD2294A03339B1A33
S11301409B0801339B000022234822498C58845089
S113015004329A42FAD1234A234B9A420AD2D34315
S113016021495B1803218B4304339B18002102C2ED
S11301709342FCD11D4AFF211D4B8B439360FD39F3
S113018090235B001B4AD1501B4AD3780325AB4311
S113019002242343D370D3780C27BB43082633436C
S11301A0D370164B987B30229043202210439873CF
S11301B0997BB943314399739A7BAA4322439A7337
S11301C00F4A536880210B4353600E4B98470E4BE4
S11301D09847FEE7001F00000000002000000020F8
S11301E00400002000000020A802002000ED00E030
S11301F00000000000700041005000410048004130
S113020000400041F11D0000991D0000F0B5C0241C
S1130210E40580225202A260224B8020C00598622D
S113022021499962626150215A5C0125AC46AA4376
S113023001273A43D2B25A5418395A5C0E35AA43AC
S11302400D3D2A435A5480229202A26098621748B4
S11302509862626151201A5C6546AA433A43D2B25D
S11302601A54585C0F26304020252843C0B25854F5
S11302708022120362600E4A9A620E4A9A625322E4
S1130280995C042081439954995C604681433943C5
S1130290C9B2995439215A5C32402A43D2B25A54D1
S11302A0F0BDC04600440041010000C0020000C08F
S11302B000000240080002C0044A136A08210B43EC
S11302C01362034A034B5A807047C046000400403F
S11302D015400000000C004010B5044B9847044939
S11302E00448054B9847054B984710BDB9020000D8
S11302F0000C004288020020150600000D020000D8
S113030030B50E4B4A22995C0125A94301242143AF
S1130310C9B299543520195C3B3A91430C3A1143C4
S113032019544B215A5CAA432243D2B25A541A5C40
S11303303C390A4021310A431A5430BD004400417B
S1130340044A136A10210B431362034A034B5A8075
S11303507047C0460004004016400000000C0040F6
S113036010B5054B9847002204490548054B9847AA
S1130370054B984710BDC0464103000000100042E1
S11303809C020020010800000103000010B502488F
S1130390024B984710BDC04610E000E0E1050000A4
S11303A0F0B5C64600B5C024E40580225204A2601C
S11303B01A4B8027FF059F62194999626261582090
S11303C0195C0422904691431954195C0126B143E7
S11303D001252943C9B219541C38195C0B329143C5
S11303E0093A1143195480218904A1609F620D4F79
S11303F09F62616159215C5C424694435C545A5C3F
S1130400B2432A43D2B25A541A5C4A390A4051318F
S11304100A431A5404BC9046F0BDC046004400414F
S1130420000100C0000200C0064BDA6920210A4323
S1130430DA615A6920310A435A61034A034B5A80EC
S11304407047C0460004004006400000000C004015
S113045010B5034B9847034B9847034B984710BD7F
S113046029040000BD0A0000A1030000F8B5454BB3
S11304709847C022D20540255560434B43499962B1
S1130480434E9E6255604620195C04242143C9B240
S1130490195495611D5C01218D431D5480277F00F3
S11304A057603C4898629E6257604825585D2043D7
S11304B0C0B258559761585D884358550137FF3786
S11304C05760354898629E6257600135585D2043F5
S11304D0C0B258559761585D884358558020C00272
S11304E090608026F6059E622C4D9D629061522597
S11304F0585D8843585580277F03576028488446B1
S113050098622848986257600235585D2043C0B20B
S113051058559761585D884358558027BF035760E5
S1130520604698622048986257600135585D2043C0
S1130530C0B258559761585D8843585580200005CE
S113054090609E62194C9C6290615B24185D8843A4
S1130550185508202D3410512034154D1D51C02537
S11305602D061D51103C1051BB301A5C8A431A549D
S1130570104B9847104B9847104B9847104B98478F
S1130580F8BDC046350B0000004400414000024065
S1130590000002C00001024000020240040000C04A
S11305A000000240100002C0200002C0000800C089
S11305B008000040D9020000610300008D03000020
S11305C051040000EFF31083036072B6BFF35F8F32
S11305D07047BFF35F8F036883F310887047000090
S11305E010B5024B1860024B984710BD1C00002048
S11305F0B50F000010B5044B1C68044B984701006C
S11306002000034B984710BD1C000020290B00005C
S1130610C90F000070B504000D00002816D00800B2
S1130620431E9841C0B2422209490A4B98472560AB
S113063029002000084B9847002806DB074B23823B
S1130640074BE360074BA360002070BD0020EAE77E
S11306505C1E0000210B0000850C00000080FFFFE1
S1130660ED060000B106000030B587B004000D00AF
S1130670002814D00800431E9841C0B2BD22094985
S1130680094B98472B6803936B680493AB680193F9
S1130690059303A92000054B984707B030BD0020FF
S11306A0ECE7C0465C1E0000210B0000D90D0000E1
S11306B070B584B004000E001500431E9841C0B20A
S11306C0AD220749074B98470023029301960395EF
S11306D02000083801A9044B984704B070BDC046F7
S11306E05C1E0000210B00006906000070B584B098
S11306F004000E001500431E9841C0B29122074920
S1130700074B98470296002301930395200008386D
S113071001A9044B984704B070BDC0465C1E00009C
S1130720210B000069060000F8B5CE46474680B5A7
S113073004000F009046002821D0002921D0100089
S1130740431E9841FB221049104B98470834104D22
S11307502000A8470028FBD000260E4B99460C4DDC
S1130760B95D2000C8472000A8470028FBD0013607
S11307704645F5D330000CBC90469946F8BD0020A0
S1130780E0E70020DEE7C046781E0000210B0000F1
S1130790710C0000610C0000F8B5CE46474680B5E8
S11307A004000F00904600281DD000291DD0100021
S11307B0431E98411622FF320D490E4B98470026DE
S11307C008340D4D0D4B99462000A8470028FBD056
S11307D02000C847B85501364645F5D330000CBC57
S11307E090469946F8BD0020E4E70020E2E7C046C1
S11307F0781E0000210B00007B0C0000690C000037
S113080070B505000C00002813D00800431E984161
S1130810C0B23E220849094B9847280008302100FD
S1130820074B9847002803D1064B6B60064B2B609F
S113083070BD0020EDE7C046781E0000210B0000CB
S1130840350C00009907000029070000F0B50400EA
S11308500E4B5A78904217D0002300200B4F0F26DE
S113086026403D0008E0013040B204280AD020337D
S1130870EA185278A24206D0D95D0029F3D19642F3
S1130880F1D100E00538F0BD0020FCE72000002095
S11308900020704770B504000D000A4B98474201D0
S11308A0094B9B189A780023032A01D0180070BDC5
S11308B04001054B1818836929002000984703005C
S11308C0F4E7C0464D08000020000020F0B585B0D4
S11308D005000F001600514B98470400002F62D109
S11308E04F4B420199180020C870D35C002B0ED0E6
S11308F062014B4B9B1801229A706401484B1C19EE
S1130900E178E36932002800984705B0F0BD8B78A0
S1130910032B0CD0424B62010C329A1864011C194F
S113092060780021E36998470223A370EDE73C4A0D
S11309300B000C254D5761010C3152185878DB69B6
S113094001219847002817D06201354B9B180522D6
S11309509A70033ADA70002D09DB6401304B1C19DC
S113096060788023184301212E4B9847CDE764011A
S11309702B4B1C196078F6E76401294B1C190423DE
S1130980A3706378002201920292002D08DB80326A
S1130990134301A8037201234372234B9847B4E71E
S11309A00F221340F5E7012F0AD0022F1DD0032F89
S11309B02CD042011A4B9B1806229A70DA709CE7DD
S11309C0174B420199180220C870D35C002B05D044
S11309D06201134B9B1805229A708EE702228A70DB
S11309E0002128000F4B984787E70D4B42019918C7
S11309F00420C870D35C002B05D06201084B9B18FF
S1130A0001229A7079E702238B707EE74201044B3E
S1130A109B1800229A700532DA706EE74D080000C8
S1130A2020000020491700001D190000F0B5C6463B
S1130A3000B504001D4B9847060045010C351C4BBE
S1130A405D19290020001B4B9847C0B208280AD022
S1130A5001212000184DA847802020430121A847E8
S1130A6004BC9046F0BD00212000134B98469847E3
S1130A708027274300213800C04772010C4B9B1884
S1130A8001229A705B692900200098470028E7D169
S1130A907601074B9E190523B37001212000064CF3
S1130AA0A04701213800A047DAE7C0464D080000FE
S1130AB020000020AD1800004917000010B5104BAD
S1130AC0984700281BDB0F4C8022002120000E4B8E
S1130AD0984723008034FF210C4A59705A619A6167
S1130AE0DA612033A342F8D109490020094CA04718
S1130AF009490120A04709490220A047002010BD50
S1130B0089160000200000204B1E00009108000000
S1130B102D0A0000311B000095080000CD080000DC
S1130B20002800D100BE7047014B58437047C046AF
S1130B3080BB000010B5064B5A685A60054B9847B5
S1130B40054B9847054B9847054B984710BDC04641
S1130B5000400041990B0000E90E0000650B000005
S1130B60310F0000074B802252009A60064A5A60F7
S1130B70064A9A60064A5A60812252009A60054ADF
S1130B805A607047000C004000070100012000007B
S1130B900106010002060100064B1A7AD2B21A724B
S1130BA05A7AD2B25A729A7AD2B29A72DA7AD2B2A1
S1130BB0DA7270470004004010B50400194BC318E2
S1130BC09B0ADBB2022B05D0912292001649002029
S1130BD0164B98470122E3691A42FCD10322E369C8
S1130BE01A42FCD123689B0718D40122E3691A42F4
S1130BF0FCD12368012213432360E3691A42FCD128
S1130C000B4B2360C0239B026360D2235B42A3810E
S1130C100023A3733022A354002010BD11204042AE
S1130C20FBE7C04600F8FFBDC01E0000210B00001A
S1130C300400314070B505000C00431E9841C0B259
S1130C40BF220449044B98472C602000034B98476B
S1130C5070BDC046C01E0000210B0000B90B00008F
S1130C60036889B2198570470368188DC0B270474C
S1130C700368187E0123184070470368187E4007F4
S1130C80C00F704770B506000C00494BCB189B0A87
S1130C90DBB2012B08D0002800D179E0002900D074
S1130CA07EE00025002006E000284DD0002948D031
S1130CB0404D18350120404A4049414B9847002D8A
S1130CC060D00122E3691A42FCD10322E3691A428B
S1130CD0FCD123689B0758D40122E3691A42FCD152
S1130CE02368012213432360E3691A42FCD1346070
S1130CF01C232A681340082B29D02000431E984146
S1130D00C0B28E2212012D492D4B98472D4B2A68D3
S1130D10134023602C4A6B681A4080239B021343C0
S1130D2063602B7B23736A7B3023E25407236A6856
S1130D3013405A1E934101333371EB89F380002031
S1130D4070BD1C4D1835ADE71A4D1835AAE72000C3
S1130D50431E9841C0B21D4A1849194B9847194B74
S1130D602A68134023601A4A6B681A40194B1343CC
S1130D706360AB6863626A7B3023E254E369002BEF
S1130D80FCD1D3E70D204042DAE711204042D7E7F7
S1130D90094A0A4900200A4B98470D204042CFE7F0
S1130DA0054A06490120064B98470D204042C7E7F3
S1130DB000F8FFBD941E000016090000C01E0000CC
S1130DC0210B0000FCFEFFFFBF1DFDFFF408000027
S1130DD0BFDDFDFF40020200F0B5DE4657464E4639
S1130DE04546E0B583B081460E0004680B6898461A
S1130DF04D6803790193002815D02000431E9841C3
S1130E00C0B2364A3649374B9847E3695B073FD14E
S1130E100323E0691840FCD123689B073BD50200FB
S1130E2001239C4609E00020EBE7013501325BB267
S1130E30002B16DBB368834227D9237EDBB204215F
S1130E4019422BD0A76A002DF0D02F7001990129E7
S1130E50EBD93F0A6F700235E8E701218B46D8448D
S1130E6037E001235B4263838133237613204042BE
S1130E700322237E1342FCD00323237603B03CBC1D
S1130E8090469946A246AB46F0BD9342D5D8EFE7CB
S1130E9004204042F2E714204042EFE79042C6D8D3
S1130EA067461F42C3D04F46FF88BA464746002FC5
S1130EB00FD03F78BA4601990129CED947467F78A9
S1130EC03F02BB46574659460F43BA4602218B465A
S1130ED0D84401305746A762A9E7C046720A000009
S1130EE0C01E0000210B000010B50E4B1A6A186AD0
S1130EF00D491140800F80070C4C204301431962B7
S1130F009969022001439961D202D20E1A7719001D
S1130F100822CB681A42FCD0024A136A80210B4390
S1130F20136210BD000800400000FF0F0203000020
S1130F3002221C4B9A8419000E32CB681A42FCD050
S1130F40194A184BDA62194B1B689B0E3F2B1FD0B2
S1130F509B02802292001343124A936202239384D9
S1130F60938C5B0717D51100D022CB681340D02B8C
S1130F70FBD10C4A938C80210B4393840C4A537805
S1130F80DB09FCD1074A936902218B4393617047C3
S1130F90FC23DB01E0E703491022CB681A42FCD0B2
S1130FA0E7E7C04600080040000001042460800018
S1130FB0000C0040024B034A5A6005221A60704735
S1130FC010E000E0FFFFFF0070B50B0E5E1EF6B2EE
S1130FD0002B13D034000E4A0E4D80204002556081
S1130FE0956013680342FCD0013CE4B2FF2CF6D1B7
S1130FF03306F61A084B9C4661447118044B596039
S113100099601900802252020B681342FCD070BD13
S113101010E000E0FFFFFF00010000FF0020704728
S113102070B5837C0F221340C17C083A0A40012A20
S11310300BD05A0119498C4662441021D1715B01CD
S1131040174A94466344197070BD4A060ED5C27C93
S113105040218A43C2745A01124CA446624480253A
S11310608224640015550624FF341155C27C0821DE
S11310708A43C2740C495A018C180025A572A576BE
S11310801300064CA44663446F24DC71044B9C4655
S113109062441470807C8B6E9847D5E70051004100
S11310A00851004100500041A000002010B5837C8D
S11310B0FF2B02D0C27C520600D410BDC27C402457
S11310C0A243C27482680248046F1800A047F4E780
S11310D0A000002010B520228A40D2B2817C0F23C8
S11310E00B405B0103498C4663441A700121024B97
S11310F0984710BD08510041AD10000030B583B0D1
S1131100837C01AC2525257025356570FF2B1BD00C
S1131110C47C640618D50F242340002916D05C0132
S11311200E4DAC4664448025257101AC645C5901C4
S11311300A4DAC466144CC715B0109498C46634459
S11311401C701100074B984703B030BD5C01034D80
S1131150AC46644440256571E7E7C0460051004150
S113116008510041AD10000070B582B0837C0F229D
S1131170134001AA04241470043454705D0100293E
S113118031D01A0008325201324C145D6406640FE7
S11311900A015219304DAA18957AEDB2022C2AD0C0
S11311A0AC0741D5C57C947A0226B443947201AA53
S11311B0545C5A01294EB4466244D4715B01284AF6
S11311C0944663441C7007232B40012B3FD1C37CFE
S11311D05B063CD5C37CDB09994238D00022190058
S11311E0204B984733E01A0008325201194C145D21
S11311F007221440CCE7EC07D2D5947A0125AC43FE
S1131200947201AA545C5A01144DAC466244D471E0
S11312105B01134A944663441C704B1E9941C9B246
S11312200422104B984712E05A00521812010A483F
S113123082180020907201AA515C5A010748844622
S11312406244D1715B01064A94466344197002B04A
S113125070BDC04600500041A00000200051004174
S113126008510041FD100000F0B5C64600B50C4D14
S11312702C0074342935FF350A4B9846FF27002685
S113128003212000C047A774E6741434AC42F7D19C
S1131290602200210248044B984704BC9046F0BDEC
S11312A0A0000020AD1000004B1E0000F0B5C646A3
S11312B000B504000E00837C0F251D40002900D1D9
S11312C0AAE06A015A4B9B1858698004800C238A4F
S11312D0584A934200D19AE0013B9AB2E37C072733
S11312E01F40002E05D06B0153498C4663440221F4
S11312F0D971A368C118A160636899424AD25B1A84
S11313009BB2E27C920635D5228A101C92B29A4294
S113131000D9181C83B2984623689C46614442460F
S1131320E068464B9847E1686A01414B9B18196194
S11313306A013F4B9B185A6941468904890C920BF8
S113134092030A435A615A693D490A405A61002E80
S113135007D1012F59D04A226B013A498C46634484
S11313601A706D01344B9C46654480236B7104BC38
S11313709046F0BD1A1C80208001834201D9324B73
S11313801A8893B29846236859186A01284B9B1807
S11313901961CDE7E37CDB060FD5E37C1022934390
S11313A0E3746A01224B9B185A69920B92035A61A7
S11313B05A6923490A405A61C9E7012F0ED06D01C9
S11313C0224B9C4665444A232B70218A0240914259
S11313D00BD0002120001E4B9847C8E76D011B4B22
S11313E09C4665444B232B70EFE7E37C40229343F8
S11313F0E374A07C0E4BDB6EA16898470028B6D13D
S1131400E37C40221343E374E3E74E22A4E7E77C42
S113141007231F40074A66E7038A064A00209342CF
S113142000D059E7E37C07271F400020014A60E70A
S1131430A0000020FF03000000510041391E0000FD
S1131440FF3F00F009510041DC1E0000085100413B
S1131450AD100000F8B5DE4657464E464546E0B5A9
S113146004008846837C0F251D40002957D06A015B
S11314707D4B9B185A681201920C92465F68BF0418
S1131480BF0CBB46068A794B9E4200D1CDE0013E9B
S1131490B6B25F463740E37C07221A409146434682
S11314A0002B05D06B01724A944663440122DA7121
S11314B0E37C9B060FD56368002B39D0A0681B1A08
S11314C09BB2226894466044E1681A00BB4200D98A
S11314D03A00684B98476368002B29D04246002A9B
S11314E042D0228ABA423FD9E37C10229343E37468
S11314F0A3685B44A3604B46012B00D187E06B01DA
S11315005D4A9446634425221A70002D02D1564B3D
S1131510E2681A6000212000584B984759E0068A77
S1131520524B9E4200D18EE000239B469A46AEE782
S1131530E37CDB0600D47FE0E37C1022934320228B
S11315401343E374484A6B01E1689950218AD31824
S11315505A68890409094A4802400A435A605A6889
S1131560920B92035A6022E0A2685244A260934212
S1131570C1D99B1A9BB2E17C890630D5228A111C01
S113158092B29A4200D9191C8BB2E0686A013649BA
S113159050506A01344989184A689B041B09384829
S11315A0024013434B604B689B0B9B034B604346C9
S11315B0002B08D125224B46012B2FD06B0131493A
S11315C08C4663441A706D01294B9C466544402344
S11315D02B713CBC90469946A246AB46F8BD218A85
S11315E08B420AD9802189018B420DD8B3432168EB
S11315F08A1869011C480A50CBE78B42F7D2E17C78
S113160020200143E174F2E780239B01EFE76B01A3
S1131610194A944663442D221A7076E76A01124BE4
S11316209B1800229A762D32C8E7BF05BF0DC37CF4
S113163007221A40914635E74346002B0CD1A36894
S11316405344A36057E7C37C07221A4091460027FE
S113165000239B469A462BE7238ABB4200D943E7E3
S1131660A3685344A36046E7A0000020FF030000E2
S113167000510041391E000008510041AD10000026
S1131680FF3F00F00951004110B52A4901228B782F
S11316901342FCD1274903228B781342FCD1254BFA
S11316A01B789B0742D4234901228B781342FCD137
S11316B0204A137801210B431370110001228B7807
S11316C01342FCD11C4B1D4A1A665A669A66DA66A6
S11316D01A671B4B98471B4B1B685A0B1F210A4068
S11316E0980C01409B015B0F1F2A19D01F2919D0A8
S11316F0072B19D092010A431B0313430D4A138588
S1131700D37803210B43D370D3780C210B43D370CC
S113171004231370084B536201231381002010BD6E
S11317201A3AE3E70239E3E7023BE3E711204042D8
S1131730F5E7C04600500041A00000201D10000045
S11317406912000024608000F0B50F23034040B20A
S1131750C40F002B09D01A00002804DB022B05D982
S11317601220404219E09A1CF8E70022012915D002
S1131770002936D093009B189B00474AD218863222
S113178012780F2313405B01444A944663449879CA
S11317901023A3401840431E9841F0BD1025A540D6
S11317A0EDB23D49900083189B00CB1886331E7818
S11317B00F2333405E01394FBC46664475712025C2
S11317C0A540ECB25B01364DAC4663441C708218F4
S11317D092008A188032D37908210B43D3710020F8
S11317E0DBE793009B1899002B4B5B1886331B781F
S11317F00F210B405D012B498C4665448321490030
S11318006E5CF639A14000200E42C6D0C9B2053044
S1131810FF3029542021A140C8B25B01224EB446B6
S1131820634418700823FF33EB5C0B4209D0082390
S1131830FF33E854073BFF3BA340DBB2822149005E
S11318406B5493009B189900134B5B187033D97D2C
S113185007230B40012B0BD093009A1892000E4BD8
S11318609B188033DA7908218A43DA71002094E7DF
S11318700633FF33E95CD63B0020194200D08CE7E5
S113188093009A189200044B9B188033DA7908214C
S11318908A43DA7181E7C046A0000020005100416C
S11318A009510041005000410851004170B50D003C
S11318B00F2318404401164B1B1919685B689B04DD
S11318C09E0C02281AD8002D1BD0124B9C4664444F
S11318D080235B00E35C112B16D10823FF33E35C08
S11318E00020DB0600D470BD082228000A4B98476C
S11318F010220823FF33E2543000F4E71220404260
S1131900F1E712204042EEE713204042EBE7C046E5
S1131910A000002000500041391E0000F0B5DE4652
S113192057464E464546E0B585B08046067A0F23B5
S1131930334076B2002B00D1D3E01800002E39DBFF
S11319400400734A6032411C8D006D18AD005519B6
S11319508100091889005218918C6E4A91422BD04B
S11319604F1EBFB2424652681740022B00D9A4E072
S113197043461B686848834220D9981801906748F9
S113198084460198604519D89B0717D1002E32DB95
S1131990914200D9AFE0002F30D0A3001B199A0068
S11319A05B4B9B1880331B68002B00D18BE000231A
S11319B099460FE0981CC3E70F00D3E7A3001B1957
S11319C09A00534B9B1880331B68002B00D177E09F
S11319D001239946A3001B199A004D4B9B187033A1
S11319E0DB7D02201B070CD505B03CBC9046994614
S11319F0A246AB46F0BD00239946EBE70023994687
S1131A00E8E703A8464B9847A3001B199A00404BEC
S1131A109B187033DB7D5B0644D4A3001B199B0029
S1131A203B4A93469B4480235B449A46DB7940229D
S1131A3013435246D37103A83A4B98475B46424638
S1131A4012685A67424652689A6700235A46D36717
S1131A50F20FD2015346D9797F230B4049464901FD
S1131A601343202293430B435246D37143465B7A7C
S1131A700022002B02D07A427A41D2B2A3001C1970
S1131A80A400234B1B1980331201DF7910218F43EB
S1131A901743DF71002E0ADB00212800224B9847F0
S1131AA00020A1E703A81F4B984701209CE70021D1
S1131AB028001E4B9847002096E71220404293E7E7
S1131AC01320404290E7122040428DE71320404209
S1131AD08AE743465A689705BF0D0D4D74350024B7
S1131AE046E70B4A6032918C0A4A9142F1D0084D84
S1131AF07435002434E7A3001B199A00044B9B1887
S1131B0080331B68002BE1D00123994662E7C0466D
S1131B10A0000020FF030000FFFFFF1FFF7F002045
S1131B20C5050000D305000055140000AD120000E7
S1131B300B1E08D0002808D0012809D0022806D19D
S1131B40054A136703E0054BF4E7034A93667047BD
S1131B50014AD366FBE7C046A00000201D10000028
S1131B60F8B5814B1E8CB6B2002E03D07F4C743472
S1131B700025B9E0998B1B8B0B405A0717D49A05A3
S1131B801CD41A063ED470221A4244D11A075ED4D9
S1131B90DB07EBD5744B764A9A839A82923AFF3AE2
S1131BA01A83724B5B6E00210420984705E00422DF
S1131BB06D4B9A836D4B1B6E9847F8BD6A4B6C4A0C
S1131BC09A839A82923AFF3A1A83684B1B891B07BD
S1131BD01B0F032B0CD0654B1B8D1B071B0F002108
S1131BE06F3A032B05D0614B5B6E03209847E4E703
S1131BF0002252015D4B9B1819894904490D0022AA
S1131C001A81F0E78022584B9A83584B5B6E00216F
S1131C1005209847D1E7544B9A839A82544A1A83F1
S1131C20544B9B8C9B060CD45249323AFF3ACB68F6
S1131C301340D02BFBD14D4B5B6E00210220984703
S1131C40BBE74C491022CB681A42FCD0F3E7464B61
S1131C500021802252009954F83A9A8368329A8279
S1131C60434A1A83444B9847404B5B6E0021012042
S1131C709847A2E7CB0607D44B0608D48B062ED58B
S1131C8000213E4B98472AE03D4B984727E001212D
S1131C903A4B984723E04A060ED40A0710D48A0721
S1131CA012D407221340012B19D14B0710D4CB06B1
S1131CB015D5334B984712E00121304B98470EE07D
S1131CC00121304B98470AE001212F4B984706E049
S1131CD000212C4B984702E00021284B98470135FE
S1131CE01434092D00D168E72000A17CFF29F6D027
S1131CF00F230B40012199400E42F0D05901234F8C
S1131D00BC466144C9795B01214FBC4663441B78DE
S1131D101940E4D0AB005A199200144B9C4662441B
S1131D207032D37D5A06A5D55AB2002AB3DB8A068F
S1131D30D2D44A070CD4CA070ED407221340012B6D
S1131D40CDD10B070CD4CB06C9D50D4B9847C6E7AC
S1131D5000210C4B9847C2E701210E4B9847BEE780
S1131D600121084B9847BAE700500041A000002029
S1131D70010200000008004069120000D5100000B4
S1131D802110000069110000AD1200000051004153
S1131D900951004155140000F0B5DE4657464E4641
S1131DA0C0B5104B9847104B9847C024E4059823BE
S1131DB09B46903B99469A468026B602A6615B46AE
S1131DC05246E25080273F05A761FA208000074D64
S1131DD0A847666194234A46E2506761FA2080006E
S1131DE0A847E9E71901000015010000F505000006
S1131DF070B500260C4D0D4C641BA410A64209D1ED
S1131E00002600F06DF80A4D0A4C641BA410A6428B
S1131E1005D170BDB300EB5898470136EEE7B30027
S1131E20EB5898470136F2E7EC1E0000EC1E000068
S1131E30EC1E0000F01E0000002310B59A4200D1F1
S1131E4010BDCC5CC4540133F8E7030082189342FC
S1131E5000D1704719700133F9E700002E2E2F6866
S1131E60616C2F7372632F68616C5F7370695F6D4F
S1131E705F73796E632E63002E2E2F68616C2F734F
S1131E8072632F68616C5F75736172745F73796ECE
S1131E90632E63000000000000000000000000004A
S1131EA00000000000000000000000000C003000F2
S1131EB000000200000000001700FF010100000004
S1131EC02E2E2F68706C2F736572636F6D2F687080
S1131ED06C5F736572636F6D2E63000000200000F9
S1131EE0F8B5C046F8BC08BC9E467047DD0000004B
S1131EF0F8B5C046F8BC08BC9E467047B500000063
S9030000FC
