:100000005024002019010000150100001501000016
:1000100000000000000000000000000000000000E0
:1000200000000000000000000000000015010000BA
:100030000000000000000000150100001501000094
:100040001501000015010000150100001501000058
:100050001501000015010000150100001501000048
:100060001501000015010000150100001501000038
:100070001501000015010000150100001501000028
:100080001501000015010000150100001501000018
:100090001501000000000000000000001501000034
:1000A00015010000150100001501000015010000F8
:1000B0000000000010B5064C2378002B07D1054B3B
:1000C000002B02D0044800E000BF0123237010BDC4
:1000D0003004002000000000B8030000084B10B5F9
:1000E000002B03D00749084800E000BF0748036819
:1000F000002B00D110BD064B002BFBD09847F9E731
:100100000000000034040020B8030000B803000021
:1001100000000000FEE70000F8B52A4A2A4B9A4288
:1001200011D01A00294B9A420DD2294A03339B1A47
:100130009B0801339B000022234822498C5884509D
:1001400004329A42FAD1234A234B9A420AD2D34329
:1001500021495B1803218B4304339B18002102C201
:100160009342FCD11D4AFF211D4B8B439360FD3907
:1001700090235B001B4AD1501B4AD3780325AB4325
:1001800002242343D370D3780C27BB430826334380
:10019000D370164B987B30229043202210439873E3
:1001A000997BB943314399739A7BAA4322439A734B
:1001B0000F4A536880210B4353600E4B98470E4BF8
:1001C0009847FEE7B803000000000020300400203C
:1001D00004000020300400204C04002000ED00E06A
:1001E0000000000000700041005000410048004144
:1001F00000400041190200000D020000014A024BBC
:100200001A60704740420F000000002010B5014BFB
:100210009847FEE7FD01000070B50D4E0D4D00241E
:10022000AD1BAD1005D0A300F35801349847A5428B
:10023000F9D100F0AFF8084E084D0024AD1BAD1009
:1002400005D0A300F35801349847A542F9D170BDF9
:10025000A0030000A0030000A0030000A80300000A
:10026000034B10B5002B02D0024800F005F810BD7A
:10027000000000008902000010B5010000230022E8
:10028000002000F01BF810BD70B5094B094CE41AB2
:10029000A41009D0084AA518AD00ED182B68013C40
:1002A0009847043D002CF9D100F07EF870BDC0469F
:1002B000B4030000B8030000FFFFFF3FF8B5DE46BF
:1002C0009B46314B45461C68A4234E4657465B006F
:1002D000E0B50500E0580E00904600284BD043687A
:1002E0001F2B0DDC5C1C002D21D102339B004460D0
:1002F0001E5000203CBC90469946A246AB46F8BD35
:10030000224B002B3CD0C820400000E000BF00285A
:1003100036D0A42200235200A15843600160A050AF
:1003200040328350043283500124002DDDD09A00E6
:1003300091468144424688214F467A50C422520059
:100340009046804442468739994012688A460A435B
:100350009446424661461160842249465F465200F7
:100360008F50022DC1D1020055468D32FF321168E7
:100370000D431560B9E720004D30FF30E050AEE787
:1003800001204042B6E7C046900300000000000094
:1003900008000020F8B5C046F8BC08BC9E4670476F
:1003A00061020000DD000000F8B5C046F8BC08BCE2
:0803B0009E467047B5000000F5
:1003B80040420F000000000000000000F40200208E
:1003C8005C030020C40300200000000000000000BF
:1003D8000000000000000000000000000000000015
:1003E8000000000000000000000000000000000005
:1003F80000000000000000000000000000000000F5
:1004080000000000000000000000000000000000E4
:1004180000000000000000000000000000000000D4
:1004280000000000000000000000000000000000C4
:1004380000000000000000000000000000000000B4
:1004480000000000000000000000000000000000A4
:100458000000000000000000000000000000000094
:1004680001000000000000000E33CDAB34126DE631
:10047800ECDE05000B00000000000000000000009A
:100488000000000000000000000000000000000064
:100498000000000000000000000000000000000054
:1004A8000000000000000000000000000000000044
:1004B8000000000000000000000000000000000034
:00000001FF
