:1000000060200020250100002101000021010000E6
:1000100000000000000000000000000000000000E0
:1000200000000000000000000000000021010000AE
:10003000000000000000000021010000DD0E0000B3
:100040002101000021010000210100002101000028
:100050002101000021010000210100002101000018
:100060002101000021010000210100002101000008
:1000700021010000210100002101000021010000F8
:1000800021010000210100008D0E0000210100006F
:10009000210100000000000000000000210100001C
:1000A00021010000210100002101000021010000C8
:1000B0000000000010B5064C2378002B07D1054B3B
:1000C000002B02D0044800E000BF0123237010BDC4
:1000D000000000200000000020100000084B10B5B8
:1000E000002B03D00749084800E000BF0748036819
:1000F000002B00D110BD064B002BFBD09847F9E731
:10010000000000000400002020100000201000006B
:100110000000000010B5014B984710BDB10200006F
:10012000FEE7C04625492648F8B5814209D0254B4F
:10013000984206D2C243D218920801329200224B52
:1001400098472248224B984207D2C243D2189208BD
:100150000132920000211F4B9847FF211E4B1F4A7E
:100160008B4393609023032502240C2708261C4A06
:10017000FD395B00D1501B4AD378AB432343D37086
:10018000D378BB433343D3703022174B987B9043D3
:10019000202210439873997BB9433143997380218E
:1001A0009A7BAA4322439A73104A53680B435360C5
:1001B0000F4B98470F4B9847FEE7C04620100000B2
:1001C0000000002000000020290F00000000002097
:1001D000600000203B0F00000000000000ED00E088
:1001E00000700041005000410048004100400041C3
:1001F000E10E0000A90E0000F0B58022C02480218D
:10020000CE464746254BE4055202C90580B58946CE
:10021000A2609962224901279962502101256261F9
:100220005A5CBA432A43D2B25A540F221839585C46
:100230009043804602204646064380205E544E4648
:100240008002A0609E62174E9E6251266061985D9A
:10025000B8432843C0B298552026585C104030431C
:10026000C0B25854802153200903616004240E4910
:1002700099620E499962195CA1431954195CB943FA
:100280002943C9B219543921585C02403243D2B2D1
:100290005A540CBC90469946F0BDC04600440041FB
:1002A000010000C0020000C000000240080002C0BF
:1002B000F8B5634B9847C02340254620042180278A
:1002C000604C614E614ADB055D60A262A6625D60C2
:1002D000225C7F000A43D2B222549D61225C3F3DE2
:1002E000AA4322545A4A5F600230A262A6625F604B
:1002F000225C0A43D2B222549F61225CFF19AA43B6
:100300002254544A5F600130A262A6625F60225CA0
:1003100080260A43D2B222549F61225CF605AA438A
:10032000225480224C48D2029A60A662A0625220D7
:1003300080279A61225C7F03AA432254474A5F6068
:100340009446A262464A0230A2625F60225C0A437F
:10035000D2B222549F61225C8027AA432254624673
:10036000BF035F60A2623F4A0130A2625F60225C0D
:100370000A43D2B222549F61225C3B49AA432254D1
:10038000802212059A60A662A1625B219A61625C7A
:100390003648AA43625408222D315A502031605009
:1003A000C0200006605010395A502B31635C304E2B
:1003B000AB436354336A2F4F134333622E4B2F49A1
:1003C0007B802F4B2F4898472F4B98471022336A3A
:1003D0002E49134333622E4B00227B802D482E4B37
:1003E000984701218C464A236146E25C3520AA43A6
:1003F0000A43D2B2E2540F22215C473B9143194396
:1004000021544B21635CAB4365462B43DBB2635401
:10041000235C1A4030231A432254204B204898472B
:100420008023326A1B01134333621E4B7B801E4BB9
:1004300098471E4902001E4B1E489847F8BDC0460B
:100440009108000000440041000002C0400002404A
:100450000001024000020240040000C0000002400F
:10046000100002C0200002C0000800C008000040C8
:1004700000040040000C004015420000000C004247
:100480009505000024000020F90100000010004242
:100490001642000038000020E1070000B904000007
:1004A00010E000E01B420000890E0000002C00421A
:1004B000CD0600004400002010B5024B1860024B2E
:1004C000984710BD1C000020150D0000044B10B50E
:1004D0001C68044B9847044B01002000984710BD4E
:1004E0001C00002085080000290D0000F0B5C6465C
:1004F0000400431E984100B50E4D0F4B84B00F0011
:1005000016002900083CC0B2AD229846984720004A
:10051000431E9841BD222900C0B2C047002301A953
:1005200002932000054B01970396984704B004BC42
:100530009046F0BD4C0F00002D080000110B00008C
:10054000F0B5C6460400431E984100B50E4D0F4B52
:1005500084B00F0016002900083CC0B291229846D2
:1005600098472000431E9841BD222900C0B2C047D1
:10057000002301A901932000054B02970396984799
:1005800004B004BC9046F0BD4C0F00002D080000E4
:10059000110B000070B504000D00002816D00800F3
:1005A000431E9841C0B20A490A4B4222984725602F
:1005B00029002000084B9847002806DB0020074B45
:1005C0002382074BE360074BA36070BD0020EAE77E
:1005D0004C0F00002D080000D90900000080FFFF2B
:1005E00041050000ED040000F0B545464E46DE46EC
:1005F0005746E0B5036983B05D1C9846037E06004C
:1006000044690561DB0746D4037E9B0743D4002C75
:1006100045D06368A268EB1A9A4240D814239946E1
:10062000274B81449A46274B9B460BE07769E3684A
:1006300020009847002F32D07B68BA683C00EB1A44
:1006400093422CD34846D047237C012BEED17769C7
:100650006560002F2FD03800BC46A26800214746B5
:10066000019408E043445B1B9A420DD903680100E2
:10067000002B1BD0180084684368A0469D42F1D22D
:100680004344DB1B9A42F1D8B8466746019C874237
:1006900011D008000CE00222337E1343337603B0FE
:1006A0003CBC90469946A246AB46F0BDB846019C7C
:1006B0002100D847BAE721004846034B9847B5E7E1
:1006C000750800006D0800003508000070B50400D2
:1006D0000D00002811D00800431E9841C0B24522E9
:1006E0000749084B984729002000074B98470023EB
:1006F0002361064B0020236070BD0020EFE7C04659
:10070000680F00002D0800007D0D0000E9050000C5
:10071000F8B54746CE46040080B590460F00002845
:1007200021D000291FD01000431E9841C0B2FB22E7
:100730000E490F4B98470F4D08342000A84700285A
:10074000FBD00D4B00269946B95D2000C84720001C
:10075000A8470028FBD001364645F5D330000CBC35
:1007600090469946F8BD0020E1E7C046800F0000A2
:100770002D080000C1090000B1090000F8B5474686
:10078000CE46040080B590460F0000281ED00029F8
:100790001CD01000431E9841C0B216220C4BFF32F1
:1007A0000C4998470C4B002699460C4D0834200004
:1007B000A8470028FBD02000C847B8550136464559
:1007C000F5D330000CBC90469946F8BD0020E4E714
:1007D0002D080000800F0000B9090000CD090000BD
:1007E00070B504000D00002813D00800431E984186
:1007F000C0B20949094B3E22984720002900083021
:10080000074B9847002803D1064B6360064B2360D3
:1008100070BD0020EDE7C046800F00002D080000ED
:10082000250900007D07000011070000002800D105
:1008300000BE7047036870B505000C00002B03D1A3
:1008400006E01B68002B03D09C42FAD1002000E098
:10085000012043220349044B98472B6823602C60F6
:1008600070BDC0469C0F00002D08000003680B609F
:10087000016070470368002B01D01A6802601800FD
:100880007047C046014B58437047C04680BB0000CC
:1008900010B5064B5A685A60054B9847054B984768
:1008A000054B9847054B984710BDC0460040004196
:1008B000050900005D0C0000C1080000A10C00004B
:1008C0008022094B52009A60084A5A60084A9A608E
:1008D000084A5A60812252009A60074A5A60074AC1
:1008E0009A60074A5A607047000C004000070100F8
:1008F00001080000010601000206010003200000BB
:1009000003060100064B1A7AD2B21A725A7AD2B290
:100910005A729A7AD2B29A72DA7AD2B2DA7270478C
:1009200000040040F8B50500431E98410C001B4E22
:10093000C0B2BF2231001A4FB8471A4B2C60E318DF
:100940009B0ADBB2022B04D09122310092000020DE
:10095000B8470122E3691A42FCD10322E3691A4233
:10096000FCD123689B0716D40122E3691A42FCD10B
:1009700023681A4322600122E3691340FCD10A4A2A
:1009800000202260C02292026260084AA2813022C6
:10099000A373A354F8BD11204042FBE7D00F000021
:1009A0002D08000000F8FFBD04003140ADD8FFFF66
:1009B000036889B2198570470368188DC0B2704703
:1009C000036801201B7E18407047C0460368187EEC
:1009D0004007C00F7047C046F0B5C646424B00B551
:1009E000CB189B0ADBB206000C00012B4CD0002573
:1009F000002800D16CE020003C4B3D4A9846431E45
:100A000098414146C0B23B4FB847002D65D0012206
:100A1000E3691A42FCD10322E3691A42FCD123683C
:100A20009B075DD40122E3691A42FCD123681A4373
:100A300022600122E3691A42FCD11C232A68346037
:100A40001340082B24D08E22414612010120B847C2
:100A50002A68294B1340236080236968274A9B0238
:100A60000A40134363602B7B237330236A7BE25479
:100A700007230B405A1E9341002001333371EB8949
:100A8000F38004BC9046F0BD002818D01C4DB2E79E
:100A90001C4A41460120B8472A68174B134023607F
:100AA0006968194A194B0A4013436360AB68636273
:100AB00030236A7BE254E269002AFCD1D8E70B4B71
:100AC0000B4A190000200B4F9846B8470C4D9EE783
:100AD000074A06490020074B98470D204042D0E7BF
:100AE00011204042CDE7C04600F8FFBDD00F000006
:100AF000160900002D080000FCFEFFFFBF1DFDFFD2
:100B0000BC0F0000F4080000BFDDFDFF4002020042
:100B1000F8B5DE464E4645465746E0B50B680468D4
:100B200080469B46037920009946431E98414D68B4
:100B3000474B0E00C0B2474A47499847E3695B07F5
:100B400000D07EE00323E0691840FCD123689B07B6
:100B500000D479E04B46012B44D904239C46033B47
:100B6000002199466246237EDBB21A421AD0A26A5D
:100B7000002D03D02A70120A6A70023501315BB26F
:100B8000002B27DBB3688342ECD88B42EAD80322E0
:100B9000237E1A42FCD022763CBC90469946A2465F
:100BA000AB46F8BD8842EAD84A461A42E7D04246E8
:100BB0005F46D288002F08D03A7892467A78574616
:100BC00012023A430227BA46D3445BB20130A26212
:100BD000002BD7DA012313205B4263838133237612
:100BE0004042D4E70123002204279C46237EDBB247
:100BF0001F4211D0A16A002D01D0297001350132A8
:100C00005BB2002BE6DBB3688342EFD89342BED9D8
:100C1000237EDBB21F42EDD19042F1D861461942EA
:100C2000EED04146C98889465946002905D0594623
:100C30000978894601218A46D34449460130A16298
:100C4000DEE704204042A7E714204042A4E7C04664
:100C50002D080000720A0000D00F000010B50D4AE8
:100C60000D49136A106A0D4C800F8007194020430C
:100C70000143022011629169DB0201439161082165
:100C8000DB0E1377D3681942FCD08021136A0B4323
:100C9000136210BD000800400000FF0F02030000B7
:100CA00002231021174A9384D3681942FCD0164BB3
:100CB000D362164B1B689B0E3F2B20D080229B02D9
:100CC00092001A430F4B10219A62932252009A8489
:100CD0009A8C52070CD5DA681142FCD00C4A537832
:100CE000DB09FCD10221074A93698B43936170476A
:100CF000DA681142F2D1DA681142F9D0EEE7FC224B
:100D0000D201DFE70008004080BB010424608000BE
:100D1000000C0040024B034A5A6007221A607047D9
:100D200010E000E0FFFFFF000B0E70B55E1EF6B294
:100D3000002B13D0802034000D4A0E4D4002556028
:100D4000956013680342FCD0013CE4B2FF2CF6D15D
:100D50003306F61A084B9C4661447118044A5160E8
:100D600091608021490213680B42FCD070BDC046DF
:100D700010E000E0FFFFFF00010000FFF0B54E466D
:100D80004546DE4657463A4BE0B5CD18AD0AEDB2C2
:100D900083B081460C00002D5BD04622354BFF32DC
:100DA00019000020344F9846B847002300269B4680
:100DB0009A46019300934B469322DC604146012002
:100DC000B847E37BDB09FCD123889B074DD4012284
:100DD000238813439BB22380E37BDB09FCD152467B
:100DE0002280237200226381082E28D0002E1AD080
:100DF000042E28D001236373204B9C421BD01F2359
:100E000012351D401E3BAB40802100201C4A535030
:100E10000131FF315350136003B03CBC90469946FA
:100E2000A246AB46F0BD5B46238301236683637312
:100E3000124B9C42E3D14A46124B1A60DFE7009AFC
:100E4000A261E361D6E76B461B7923766276227551
:100E5000D0E7322301939B4600933733FF339A4602
:100E6000044B08269846044FA5E711204042D3E7DB
:100E700000D4FFBDEC0F00002D080000002C004244
:100E800000E100E020000020002070470122054B17
:100E900010B51868C368997B0A4202D09A73036838
:100EA000984710BD20000020F8B50A4BC024984791
:100EB00098230822E405E25080239C2608251B0580
:100EC000054F63618023FA201B05A5514000E361B3
:100ED000B847F7E715010000CD0400007047C04691
:100EE00070B500260C4D0D4C641BA410A64209D110
:100EF000002600F085F80A4D0A4C641BA410A64297
:100F000005D170BDB300EB5898470136EEE7B3004A
:100F1000EB5898470136F2E70C1000000C10000067
:100F20000C10000010100000002310B59A4200D1F0
:100F300010BDCC5CC4540133F8E70300821893421F
:100F400000D1704719700133F9E700002E2E2F6889
:100F5000616C2F7372632F68616C5F7370695F6D72
:100F60005F73796E632E63002E2E2F68616C2F7372
:100F700072632F68616C5F74696D65722E63000027
:100F80002E2E2F68616C2F7372632F68616C5F75F2
:100F9000736172745F73796E632E63002E2E2F68F7
:100FA000616C2F7574696C732F7372632F7574691C
:100FB0006C735F6C6973742E630000000C0030006A
:100FC0000000020000000000FF00FF01010000001F
:100FD0002E2E2F68706C2F736572636F6D2F687083
:100FE0006C5F736572636F6D2E6300002E2E2F6829
:100FF000706C2F74632F68706C5F74632E630000D5
:10100000F8B5C046F8BC08BC9E467047DD0000003D
:10101000F8B5C046F8BC08BC9E467047B500000055
:00000001FF
