:020000040040BA
:1000000050084020C9014000C5014000C501400022
:10001000C5014000C5014000C501400000000000CE
:10002000000000000000000000000000C5014000CA
:10003000C501400000000000C5014000C5014000AE
:10004000C5014000C5014000C5014000C501400098
:10005000C5014000C5014000C5014000C501400088
:10006000C501400000000000C5014000C50140007E
:10007000C5014000C5014000C5014000C501400068
:10008000C5014000C5014000C5014000C501400058
:10009000C5014000C5014000C5014000C501400048
:1000A000C5014000C5014000C5014000C501400038
:1000B000C5014000C5014000C5014000C501400028
:1000C000C5014000C501400009104000C5014000C5
:1000D00000000000C501400000000000C501400014
:1000E000C5014000C5014000C5014000C5014000F8
:1000F000C5014000C5014000C5014000C5014000E8
:10010000C5014000C5014000C5014000C5014000D7
:10011000C5014000000000000000000000000000D9
:10012000C5014000C5014000C5014000C5014000B7
:10013000C501400000000000C5014000C5014000AD
:1001400010B5054C237833B9044B13B10448AFF311
:1001500000800123237010BD7400402000000000C7
:10016000882740000C4B43B10C480D4910B5AFF344
:1001700000800C48036823B910BD0A48036833B9EE
:100180007047094B002BF7D0BDE810401847064BCD
:10019000002BF5D0184700BF000000008827400062
:1001A00078004020882740000000000070470000D1
:1001B00008B5024B9847024B984708BD1D03400005
:1001C00055264000FEE7000008B5174B174A9A4233
:1001D00010D0174B144A9A420CD2013B9B1A23F0C1
:1001E000030304331344114951F8040B42F8040B80
:1001F0009A42F9D10F4B104A9A420AD2013B9B1AFC
:1002000023F0030304331344002142F8041B9342F8
:10021000FBD10A4A0A4B23F07F039360094B9847AE
:10022000094B9847FEE700BF0000402088274000A8
:1002300074004020500240207400402000ED00E097
:100240000000400061264000B91B4000114B1A6FAE
:1002500042F480121A675A6F22F480125A674FF4E0
:1002600080125A601A6F42F400121A675A6F22F411
:1002700000125A674FF400125A601A6F42F480025B
:100280001A675A6F22F480025A674FF480025A604C
:10029000704700BF00140E40044B9B6913F4001F0D
:1002A00003D14FF40012014B1A61704700060E4053
:1002B00008B5044B984704490448054B9847054B3B
:1002C000984708BD99024000008000403C02402051
:1002D000F10340004D02400008B50248024B984728
:1002E00008BD00BF10E000E0BD034000054BD3F89F
:1002F000083113F0040F03D10422024BC3F800218C
:10030000704700BF00060E4008B5024B9847024BED
:10031000984708BDED0240004D07400008B5194B55
:100320009847194B9B6913F4805F03D14FF48052B7
:10033000154B1A61144B9B6913F4803F03D14FF4A2
:100340008032114B1A61114A536843F400435360E1
:100350000F4B4FF480721A611A631A604FF000421B
:100360001A611A631A6003F500734FF000721A6184
:100370001A631A60074B9847074B9847074B9847F3
:1003800008BD00BF090B400000060E4050180E408B
:1003900000120E40B1024000D902400009034000A3
:1003A000EFF31083036072B6BFF35F8F7047BFF344
:1003B0005F8F036883F310887047000008B5024B15
:1003C0001860024B984708BD900040207D0D40000A
:1003D00010B5044B1C68044B984701462046034B5C
:1003E000984710BD90004020FD0A4000910D40004C
:1003F00038B504460D46002818BF002914BF012057
:100400000020422209490A4B984725602946204688
:10041000084B9847002807DB4FF400432382064B24
:10042000E360064BA360002038BD00BFE02640001B
:10043000950A40000D0C4000BD04400081044000BE
:1004400030B585B005460C46002818BF002914BFFA
:1004500001200020BD220749074B984723680193DC
:1004600063680293A368039301A92846034B984746
:1004700005B030BDE0264000950A4000950C4000D4
:1004800070B584B00E4615460446AD2208490030CA
:1004900018BF0120074B984700230293019603954C
:1004A00001A9A4F10800044B984704B070BD00BF37
:1004B000E0264000950A40004104400070B584B039
:1004C0000E461546044691220849003018BF012007
:1004D000074B9847029600230193039501A9A4F1C5
:1004E0000800044B984704B070BD00BFE0264000F0
:1004F000950A4000410440000F4B5978884218D0BB
:1005000030B41A46002300F00F0507E001335BB258
:10051000042B09D020325178814207D01478002C66
:10052000F4D18D42F2D101E04FF0FF33184630BCD8
:100530007047002318467047940040200020704701
:1005400038B504460D46094B9847094B03EB401359
:100550009B78032B01D0002038BD054B03EB4010E6
:10056000836929462046984738BD00BFF9044000FA
:1005700094004020F0B585B006460D4617464D4B19
:1005800098470446002D5BD14B4A4301D118002007
:10059000C870D35C73B1484B03EB441301229A70CB
:1005A000454800EB4410C3693A46C1783046984745
:1005B00005B0F0BD8B78032B0BD03F4800EB441205
:1005C0001446D3690C320021607898470223A37047
:1005D000EEE70B4691F90C500A46CE690C32012128
:1005E0005878B047A0B1344B03EB441305229A70FE
:1005F0000222DA70002D09DB2F4800EB441040780E
:1006000040F0800001212D4B9847D1E75878F9E759
:10061000294800EB441004238370437800220192A0
:1006200002929542ACBF43F0800303F00F038DF8B4
:100630000C3001238DF80D3001A8214B9847B7E706
:10064000012D0AD0022D1CD0032D2AD01A4B03EB0A
:10065000401306229A70DA70A2E7174A4301D118B4
:100660000220C870D35C2BB1134B03EB441305225B
:100670009A7095E70B469870002130460F4B9847CB
:100680008EE70D4A4301D1180420C870D35C2BB10A
:10069000094B03EB441301229A7081E702238B700C
:1006A00086E7054B03EB401300229A700522DA70AF
:1006B00076E700BFF904400094004020591840003C
:1006C000151A40002DE9F04105461C4B9847064697
:1006D0001B4C04EB40140C3421462846194B984718
:1006E000C0B2082809D001212846174CA047012193
:1006F00045F08000A047BDE8F08100212846124F58
:10070000B84745F0800800214046B8470C4B03EB42
:10071000461301229A705B6921462846984708B122
:10072000BDE8F081064B03EB46160523B3700121AB
:100730002846B84701214046B847F1E7F904400090
:1007400094004020B11940005918400010B5114BD9
:10075000984700281CDB104C8022002120460F4BBC
:100760009847234604F18000FF210D4A59705A61D1
:100770009A61DA6120338342F8D10A4900200A4C99
:10078000A0470A490120A04709490220A0470020AC
:1007900010BD00BF0914400094004020BF26400057
:1007A0003D054000C5064000891B40004105400052
:1007B0007505400008B5014B984708BD651B400012
:1007C00008B5014B984708BD5914400008B5014BC6
:1007D000984708BDA514400008B5014B984708BDCF
:1007E000B5144000F8B506460C4617460F4B98471F
:1007F000002814DAFF200D4B9847051E12DB3A46FD
:10080000214630460A4B984700280DDB094B68010A
:100810001A18567004F003041C540020F8BD6FF041
:100820001300F8BD6FF01400F8BD00BFF9044000DC
:10083000D51440009400402008B502460021084627
:10084000014B984708BD00BFE507400038B5054695
:10085000064B9847041E07DB2846054B984705487A
:1008600000EB4410FF23437038BD00BFF904400083
:100870000D1640009400402038B505460E4B9847B1
:10088000041E16DB63010D4AD35C002B0CBF022251
:1008900001220A4B03EB44139A702846084B9847F1
:1008A000002800DB38BD054B03EB44140023A37084
:1008B00038BD6FF01100F5E7F904400094004020C6
:1008C000691640002DE9F04786B00446077A38469D
:1008D0003F4B9847657AD4F80480061E72DB04A863
:1008E0003C4B98473C4B03EB46139B788DF81730F5
:1008F0009DF81730DBB2012B11D004A8374B984775
:100900009DF81730DBB2052B5FD0062B23D0002BD0
:100910000CBF6FF01200012006B0BDE8F087DFF8D1
:10092000B8A04FEA46190AEB090303229A7004A8FB
:100930002A4B98471AF8093083B1227A003518BF3C
:10094000012523680193CDF8088017F0800F19D195
:1009500002F00F0318E06FF00F00DDE71E4B03EB12
:100960004613DA7C9D7C05EB0225ADB2A5B91A4B86
:1009700003EB46160423B37000230125227A216875
:100980000191029342F080038DF80C308DF80D50E8
:1009900001A8134B9847BFE74346A84528BF2B46FD
:1009A0000D4A02EB461696F90C20002A05DB227A46
:1009B0002168019102930025CAE79D4294BF00255A
:1009C0000125DBE76FF01100A6E70220A4E700BFD6
:1009D000F9044000A103400094004020AF03400010
:1009E000151A400038B5044631B101290CBF012168
:1009F0000221124B984738BD114B9847051E1ADB50
:100A0000104B03EB45139B78052B01D0002038BD1C
:100A100000212046094B98470028F8DB094B03EBDF
:100A200045150123AB700321E970EB6900222046D4
:100A30009847002038BD6FF0110038BD59184000AC
:100A4000F90440009400402038B50D4614460E4B82
:100A500098470E4B002C08BF1C46002813DB012DC5
:100A600008D015B1022D0AD038BD094B03EB401058
:100A7000446138BD064B03EB4010846138BD044B24
:100A800003EB4010C46138BDF90440003D0540004F
:100A90009400402000B900BE704703684BB18B4200
:100AA00009D01B681BB19942FBD10120704700207F
:100AB00070470020704701207047000070B5054660
:100AC0000E4604680A4B984780F0010059220949F4
:100AD000C0B2094B98472B681BB92E60336070BDBC
:100AE0001C462368002BFBD12660336070BD00BF1D
:100AF0009B0A4000FC264000950A4000014B03FB86
:100B000000F07047E093040000B583B001A80E4BDD
:100B100098470E4AD2F8883043F47003C2F8883000
:100B2000BFF34F8FBFF36F8F01A8094B9847094A56
:100B3000136823F4706343F4A0631360064B984773
:100B400003B05DF804FB00BFA103400000ED00E02E
:100B5000AF034000000C0E405D0B400026490A6ABE
:100B600022F00202254B13430B620A46936E13F0E8
:100B7000010FFBD0204B196A214A0A431A62996A75
:100B8000204A0A409A62204A9A621A46936E13F0EB
:100B9000020FFBD04FF47102174BDA611A46936EC5
:100BA00013F0400FFBD0144A136B43F4005313634C
:100BB000936E13F0080FFBD00F4A136B23F07003F2
:100BC0001363936E13F0080FFBD00B4A136B23F4DF
:100BD000407343F480731363936E13F0080FFBD0DC
:100BE000054A136B23F0030343F002031363936E70
:100BF00013F0080FFBD0704700060E40013E37008F
:100C000000003701FFFF00F8013F182038B5054606
:100C10000C461B4B0B44C3F30743052B0DD14FF47C
:100C2000A1721849002818BF002C14BF0120002011
:100C3000154B98476FF00C0038BD4FF4A172114965
:100C4000002818BF002C14BF012000200E4B98472D
:100C5000236913F4803F0FD1802323602C604FF071
:100C600000432360094B6360094B23634FF6FF7316
:100C7000EB800020287138BD6FF0100038BD00BF38
:100C80000080FFBF1C274000950A400011000E00A5
:100C9000029696042DE9F04F85B0039089460468CA
:100CA0000B6802934D68034690F804B0221C18BFED
:100CB00001221046019240F23F222E49002B0CBF28
:100CC000002000F001002C4B9847236913F4803F6B
:100CD00034D000273E46DFF8A0A00FE001350137F1
:100CE000D4F810804FF40C7222490198D04718F0C4
:100CF000080F1AD1D9F808309E4212D2236913F096
:100D0000010F1ED0A3689BB2002DE8D02B70BBF161
:100D1000010FE3D91B0A6B700235E0E70132029242
:100D200024E0BB42EAD8304601E06FF012002369AC
:100D300013F4007FFBD005B0BDE8F08F6FF0130017
:100D4000F9E7BE42CCD8236913F0020FC8D0039B49
:100D5000DB88029A52B11378BBF1010FDED90299F8
:100D60004A7843EA02230A46023202920136E360DD
:100D7000B6E700BF1C274000950A4000034B6FF008
:100D80007F425A6005221A60704700BF10E000E001
:100D90000B0EFBB130B45D1EEDB22846124A6FF067
:100DA0007F4454609460136813F4803FFBD0013893
:100DB000C0B2FF28F5D1A5EB05650C4B0B44E91833
:100DC000094B596099601A46136813F4803FFBD0B1
:100DD00030BC7047044B596099601A46136813F48D
:100DE000803FFBD0704700BF10E000E0010000FF33
:100DF000704700207047000008B5837C03F00F03A4
:100E0000C27C02F00701012908D0154A02EB8303D6
:100E10000422C3F86021C3F8202208BD12F0400F5D
:100E20000CD0C27C6FF38612C2740D4A02EB8302AF
:100E30000121C2F890110221C2F86011C27C6FF347
:100E4000C302C274064A02EB83031822C3F860216E
:100E5000C3F82022034B9B68807C984708BD00BFE5
:100E6000008003401401402038B5847CFF2C03D05F
:100E7000C37C13F0400F00D138BDC27C6FF38612E3
:100E8000C274034A156982682046A847F4E700BF88
:100E9000140140202DE9F0410F4B1A6822F0800226
:100EA0001A601A6822F07F021A601A6842F0800203
:100EB0001A600A4D05F1140464354FF00308084F19
:100EC000FF2641462046B847A6740023E374143435
:100ED000AC42F6D1BDE8F08100800340140140200F
:100EE000690E4000C27C12F0400F67D0F8B5817CDB
:100EF00001F00F01876843689F4221D0DB1BB3F5E7
:100F0000803F26D81E0402F09005802D25D002F0E7
:100F10000702022A24D046F01406026817444A1E2B
:100F2000D2B2274C02F1310504EB05156F6004EBDA
:100F30000214D4F81C4314F0100F15D083684360DA
:100F4000C37C03F09003902B20D000211D4B9847C9
:100F5000F8BD00264FF48033D5E746F00806DCE7FD
:100F6000028A9342D9D8D6E746F02106144C04EB06
:100F70000212C2F8186382681A448260C3600139A1
:100F80004FF0007303FA01F1A161F8BD0C4B03EBC4
:100F900081030122C3F86021D3F8302112F4803F8D
:100FA00002D00122C3F890210122C3F8F0214FF4AE
:100FB000805303FA01F1024B9961F8BD704700BFFD
:100FC00000800340690E4000837CFF2B16D010B5D3
:100FD000C47C14F0400F0AD003F00F0341B1643316
:100FE0000124074941F823401146064B984710BD9C
:100FF00058330224024941F82340F5E7704700BF07
:1010000000800340690E40002DE9F04F85B0AA4AE8
:10101000516813690B40C3F30B374FEA536817B994
:10102000B8F1000F02D0A54C00258AE053689BB2AE
:101030001269134013F0040F17D113F0020F1DD1E2
:1010400013F0700F21D113F0080F2AD113F0010F04
:10105000E9D0994B01229A605A6170229A61974BAC
:101060005B6800210420984705E00422924B9A60B7
:10107000924B1B68984705B0BDE8F08F02228E4B5B
:101080009A608E4B1B689847F5E78B4B10229A604D
:101090005A6101229A61894B5B68002102209847BE
:1010A000E9E7854B08229A6070225A6101249C610D
:1010B000834B9847814B5B68002120469847DAE7CD
:1010C00006F00F060123B3403B4236D07A4B03EBC8
:1010D000860BDBF83031DBB2DBF8C02113402CD0BB
:1010E00013F0400F22D105EB8502744901EB820217
:1010F00092F82720019212F0400F58D0019A12F076
:10110000800F5BD113F0200F40F0038113F0020F2A
:1011100040F00F81019A02F00702012A0DD113F06D
:10112000040F0AD05046674B984706E04023CBF89F
:10113000203201215046644B984701351434042D68
:1011400099D0A946009494F82660FF2EF5D004F1BA
:10115000140A002FB4D1B8F1000FEED06B1EDBB231
:10116000062BEAD806F00F06711E01238B4013EA06
:10117000080FE2D0CBB2504A02EB0312D2F81C2384
:1011800012F0010FD9D14FF000728A404A494A61EA
:1011900001EB0313D3F81C23120C04D00099CB6984
:1011A0009B1ACB618B615046484B9847C5E713F0BB
:1011B000040FC2D05046434B9847BEE713F0010FCF
:1011C0000BD1019A02F00702012AB6D113F0040FE5
:1011D000B3D050463B4B9847AFE7009B988C40F20A
:1011E000FF3398422FD0421E92B2019B03F00703B7
:1011F0000293009B9E46D969DEF81830994267D366
:10120000019911F0100F21D00021CEF8201009EB28
:1012100089032A4A02EB830393F8272061F304121F
:1012200083F827200123CBF860310823CBF8603105
:10123000CBF8F031029B012B3FF47FAF4FF480439A
:10124000CBF8203279E740F2FF32CEE7009B1B6AF1
:101250000121CBF820120299012905D04FF48051C9
:1012600001FA06F614494E61009EF169B161B08C35
:101270001A4090421BD11423104A03FB092393F810
:1012800027206FF3861283F827200C4BDB6896F833
:101290002600984700287FF450AF1423074A03FB29
:1012A000092393F8272042F0400283F827200021E9
:1012B0005046054B984740E700800340140140200A
:1012C000950E4000F90D4000690E4000E50E40000B
:1012D0005B1A9BB2984228BF18468146009B5B6907
:1012E00002461944424800EBC630424B9847009AE8
:1012F000C2F82090D3694B44D3610123CBF860310D
:10130000029B012B3FF419AF4FF48043CBF82032FE
:1013100013E72023CBF8603105EB8509364B03EB4F
:10132000890393F827100422C9095046334B984784
:1013300003E7DBF83031C3F30A5319460293009AEE
:101340009369D0690222CBF86021002943D01B1A8F
:101350009BB299423CD9029301230393009B5B69A2
:10136000029A234901EBC6311844224B9847009951
:10137000CB6902980344CB610B4618624FF480435B
:10138000CBF82032009B9B8C029A934226D909EB22
:101390008903194A02EB830393F827206FF30412A1
:1013A00083F827200223CBF82032019B03F00703A8
:1013B000012B05D04FF4805303FA06F6104B5E6103
:1013C000009AD3699361002150460E4B9847B4E6CA
:1013D00000230393C2E700230393D3E70099CA696C
:1013E0008B699A42DED2039B002B3FF4A6AED9E76D
:1013F000000010A0A926400014014020C90F4000A1
:1014000000800340690E400008B50E4BD3F8003849
:1014100013F4004F13D10C4B0C4A1A605A609A60B7
:101420000B49D9601A610B4B9847064B4FF000727D
:10143000C3F800284FF450621A60002008BD6FF016
:10144000100008BD0080034014014020F10D400051
:10145000F30D4000950E4000104BD3F8003813F404
:10146000004F0CD10D4BD3F8002822F48042C3F872
:101470000028D3F8002842F40042C3F80028074AA5
:10148000D2F8043813F4804FFAD01D22034B9A612E
:101490000422034B5A600020704700BF00800340C5
:1014A00000E100E0024A136823F480731360704780
:1014B00000800340064B1A6822F07F0200F07F0094
:1014C000104318601A6842F080021A60704700BF2B
:1014D000008003402DE9F04707468A46154600F094
:1014E0000F064FEAD01840F2FF3940F2D942424984
:1014F0004D458CBF00200120404B98474D4527D0DB
:101500006B1E2B420CBF01200020DFF8EC9040F254
:10151000DA424946394CA04740F2DB424946072DA2
:1015200094BF00200120A0470AF0030A032E5AD8D6
:1015300006EB8603324A02EB830393F82630FF2B37
:1015400055D1BAF1030F21D8DFE80AF028040428A6
:101550000120DAE701212B4A02EB8602D2F80001D2
:10156000294B03408900B5F5007F19D8B5F5807F78
:101570002FD8802D2FD8402D2FD8202D2FD8102DAB
:101580002FD8082D94BF002001200AE04FF49F625D
:1015900019490020194B98470021DCE70021DAE7C0
:1015A000072043EACA2343EA08230B4343EA001314
:1015B000C2F80031124BB200911903EB81018D8406
:1015C0000AF1010481F8274081F826700020BDE867
:1015D000F0870620E5E70520E3E70420E1E70320A4
:1015E000DFE70220DDE76FF01100BDE8F0876FF064
:1015F0001300BDE8F08700BF34274000950A400083
:10160000140140200080034083E6FFFF38B500F05E
:101610000F04032C21D804EB8403104A02EB83034C
:1016200093F82630FF2B18D01546631C03EB830379
:101630000322C10905EB8300094B9847094AD36986
:1016400023EA0403D361A3001A1905EB82020021E7
:1016500082F82710FF2382F8263038BD140140207D
:10166000C90F4000008003402DE9F04700F00F044F
:10167000032C00F2DC8040B204EB8403744A02EBDA
:10168000830393F82630FF2B00F0D580002C3CD04C
:101690000123A3409EB2022C28D86E4AD26912F0D0
:1016A000080F0ED043F00806B6B26A4AD36923F099
:1016B0000803D3610C32D2F8003123F00203C2F8E0
:1016C0000031012C12D8634BDB6913F0040F0DD0ED
:1016D00046F004065F4AD36923F00403D36108325D
:1016E000D2F8003123F00203C2F80031234604EBA4
:1016F0008401574A02EB81019446564D4FF0010E8A
:101700006FEA00084FEAD8782AE0524BD3F800215C
:1017100042F00202C3F80021DA6942F00102DA6104
:10172000D3F8303113F4802F00F0898004EB840368
:10173000474A02EB830393F8273003F00703012B9A
:1017400048D000286BDB58340222424B43F8242057
:101750000020BDE8F08701331431DAB2032AE5D85E
:1017600046FA03F212F0010FF5D003EB83020CEB03
:10177000820292F82770C7F380196FF3861782F8F8
:10178000277005EB8302D2F8007147F00207C2F818
:101790000071D5F81CA00EFA03F747EA0A07EF61BB
:1017A000D2F8307117F4802F4DD0D2F8007127F4A1
:1017B0000077C2F80071B9F1000FCCD05A1ED2B236
:1017C000062AC8D9B8F1000FC5D0CA690F6AD21B62
:1017D000CA61C0E71F4901EB84030225C3F86051C9
:1017E0000120C3F8900104EB840402EB840494F814
:1017F000263003F00F0301EB83024124C2F860415D
:10180000C2F860510624C2F8F041C2F820024FF439
:10181000805202FA03F38B610020BDE8F087643444
:1018200001220C4B43F824200020BDE8F0876FF024
:101830001100BDE8F0876FF01100BDE8F0876FF090
:101840001400BDE8F0876FF01400BDE8F08700BF1A
:10185000140140200080034000F00F00032800F234
:101860009980012916D000293FD000EB80004E4B13
:1018700003EB800090F8263003F00F024B4B03EB94
:101880008203D3F83021D3F8C001C0F3801000EAFE
:101890009210704700EB8003434A02EB830393F8F6
:1018A000273013F0080F78D110B4134682001118B6
:1018B00003EB810191F8261001F00F043B4901EB85
:1018C00084014024C1F8F0414FF40024C1F8F041F4
:1018D000104403EB800090F8273043F0080380F8B1
:1018E000273000205DF8044B704700EB80032E4A40
:1018F00002EB830393F8263003F00F032B4A02EB2D
:101900008303D3F83021D3F8C01112F0400F46D032
:1019100011F0400F43D04022C3F82022C3F8202208
:10192000D3F8302112F0400F0BD04022C3F86021D1
:10193000D3F8302122F44072C3F89021D243C3F887
:10194000602100EB8002184901EB820292F8272007
:1019500002F00702012A0CD000EB8000124B03EBCF
:10196000800393F827206FF3C30283F82720002019
:101970007047D3F8303113F0400F12D100EB8000E4
:1019800001EB800393F827206FF3C30283F827202D
:10199000002070476FF01100704700207047002052
:1019A00070470020704700BF1401402000800340B2
:1019B00000F00F00154B03EB8003D3F83021032810
:1019C00021D830B40C46C1B1D3F8001111F4C05F76
:1019D00016D1D3F8301111F0040F02D1002030BC21
:1019E00070470B4D05EBC03503CD206061600421CD
:1019F000C3F86011C2F30A50F1E76FF01100EEE78F
:101A00006FF01200EBE76FF01100704700800340A9
:101A1000000010A02DE9F04F83B0067A06F00F0405
:101A200004EB84024A4B03EB82039D8C40F2FF33AC
:101A30009D4201D0013DADB204EB8403444A02EB68
:101A4000830393F82780032C7ED818F0080F03D067
:101A5000022003B0BDE8F08F0746D0F804A001A82B
:101A60003C4B984704EB8403394A02EB830393F819
:101A7000273013F0400F4FD176B204EB8409344B7A
:101A800003EB890999F8273043F0400389F82730A0
:101A900001A8314B98473B68C9F814307B68C9F8F6
:101AA00018300023C9F81C30C9F82030F20F99F81B
:101AB000273062F3C71389F8273015EA0A0F0CBFE5
:101AC000012300237A7A002A0CBF002303F00103CC
:101AD00099F8272063F3041289F82720631EDBB2EC
:101AE000062B1ED908F00703012B04D04FF48053B6
:101AF000A3401A4A9361194B03EB8404D4F80031D4
:101B000023F40073C4F80031002EB4BF0123022374
:101B1000C4F8F03100209CE701A80F4B9847012042
:101B200097E70E4B03EB8403D3F8002142F40072D5
:101B3000C3F80021013404EB8404054800EB840061
:101B4000074B9847002084E76FF0110081E700BF42
:101B500014014020A1034000AF0340000080034077
:101B6000E50E4000064B002908BF1946012803D0A6
:101B700008B9044B19607047024B5960704700BFA9
:101B8000F10D400014014020094B002908BF1946FF
:101B900020B1012805D0022806D07047054B996076
:101BA0007047044BD9607047024B1961F5E700BFDD
:101BB000F10D40001401402008B5084B9847084B30
:101BC0009847084C084E094D2046B047014620462C
:101BD000A8474FF47A70064B9847F5E7B1014000EB
:101BE000AD01400000004020CF264000BD1E400057
:101BF000D1034000F0B583B00B78C3F34114012C3E
:101C00005ED18C88354D2D78A54203D0334D6D784B
:101C1000A54258D116460C46054613F0800F0CD14C
:101C2000CF882F4B984701466378202B13D0222B67
:101C300032D06FF00C0003B0F0BD012A46D04B78D3
:101C4000212B45D1CB88072B45D1002307222549DD
:101C5000254CA047EFE7072F2BD1BEB100680090BD
:101C60008A888B79ADF804208DF806301B4B1B69F0
:101C700013B168469847F8B1184B02AA12E903005D
:101C800098609981090C99730020D4E700230722FA
:101C90002846154CA047CEE700231A461946184699
:101CA000114DA8470D4B5B6943B1608898470020F0
:101CB000C1E74FF0FF30BEE70020BCE70020BAE7E5
:101CC0006FF00900B7E76FF00900B4E70020B2E752
:101CD0006FF00C00AFE74FF0FF30ACE77801402029
:101CE000D524400080014020092140002DE9F04F1B
:101CF00083B0164601296CD041B102290CBF6FF0A8
:101D00001A006FF00C0003B0BDE8F08F1368002BD1
:101D100000F08A809A78597901F0F701022940F0A1
:101D20008680D0F808A09AF800108A4200F08280DD
:101D3000FF2940F08280D3460AF102010191484F09
:101D4000DFF82C91DFF82C8118460BF8012B0522C7
:101D50007168444B98470446D8B1A57863792279D5
:101D600002EB032292B2E1782846B847002870D1EE
:101D700015F0800F14BF8BF801508AF804502846E4
:101D8000C8473460207871682044C0470446002862
:101D9000E3D133681878042271681844314B9847AE
:101DA000019B5B4510D000284AD08278437903F02C
:101DB000F703022B47D19BF800309A4246D0FF2B05
:101DC000C3D06FF01B009EE70122274B5A71002001
:101DD00099E784682AB113685B7903F0F703022B53
:101DE0003AD12378FF2B08D0FF232370A0789842A4
:101DF00003D01E4B9847FF23A3706378FF2B08D0B6
:101E0000FF236370E078984203D0184B9847FF2374
:101E1000E3702079FF2803D0144B9847FF232371E8
:101E20000020114B58716EE76FF009006BE76FF0FF
:101E3000090068E76FF0110065E76FF01B0062E7CB
:101E40006FF009005FE76FF009005CE76FF01100C9
:101E500059E76FF0130056E76FF0090053E700BF32
:101E6000E5074000F5244000780140204D0840007F
:101E7000790840002F25400008B50A4B98470128F3
:101E80000CD80948094BC36100621830084B9847C9
:101E900008490120084B9847002008BD6FF010004A
:101EA00008BD00BFE124400078014020ED1C400047
:101EB000812440000C004020ED234000074B5B795B
:101EC00043B110B50A46014601230448C078044CCA
:101ED000A04710BD6FF01000704700BF7801402090
:101EE0000921400070B5074B1C694CB10026012543
:101EF000636832462946204698472468002CF7D16B
:101F000070BD00BF9C01402070B506460D46074BD2
:101F1000DC681CB970BD2468002CFBD06368002B02
:101F2000F9D0294630469847F5E700BF9C0140208C
:101F3000F8B507460E4615460B4B9C681CB90020A9
:101F4000F8BD246864B16368002BFAD02A46314694
:101F50003846984730B110F10A0FF2D00020F8BD92
:101F60000020F8BD0120F8BD9C01402010B5064BB3
:101F70005C681CB910BD2468002CFBD06368002B82
:101F8000F9D09847F7E700BF9C0140202DE9F043C6
:101F900083B0164629B1012965D0002003B0BDE801
:101FA000F0835378052B4FD0092BF6D15288D2B24B
:101FB000304BDA7662B9304B98477388002B14BFE8
:101FC000042103212B4B997601202C4B9847E4E701
:101FD000284B1B6859681868294B98470028ECD093
:101FE000C278817801EB022110FA81F1019104227B
:101FF000244B984700900028DFD0FF24DFF874803E
:10200000204F0CE04C4600E04C4600980378184402
:10201000009004220199B84700900028CDD090F894
:102020000290A145F1D0D8F81040002CEAD000254C
:1020300063686A462946204698470028E4D0246809
:10204000002CF5D14C46E0E75088C0B20E4B9847C3
:102050007388002B14BF03210221064B99760120BF
:10206000064B984799E7012231460020074B9847D5
:1020700093E700BF9C014020E51E4000091F40007F
:1020800075254000F5244000D9074000311F40006D
:1020900070B50D4B98470D4D0226AE760024EC76B8
:1020A00020460B4B9847287F0A4B98470A4A2146FF
:1020B00020460A4DA8470A4A31462046A8472046EE
:1020C000084B984770BD00BFE51E40009C014020B2
:1020D0004D0840003908400029214000490A4000CD
:1020E0008D1F40007908400008B510B1012804D0C8
:1020F00008BD0020024B984708BD024B984708BD19
:10210000091F40009120400000B585B00191029266
:102110008DF80C008DF80D3001A8024B984705B0E2
:102120005DF804FBC50840002DE9F04182B0064689
:102130000C460022A64B9847054630B9237813F089
:10214000E00206D0802A00F08980284602B0BDE86F
:10215000F0816278013A0A2AF7D801A151F822F0F9
:10216000A12140004B214000BD2140004B214000F7
:102170008D2140004B2140004B2140004B2140006D
:102180008D2140004B214000D92140000123002235
:10219000114630468F4CA047B0FA80F56D09D4E760
:1021A00003F01F03022BD0D1E388002BCDD1A088F0
:1021B0000021C0B2884B98470125C6E703F01F03F2
:1021C000022BC2D1E388002BBFD1A0880121C0B26D
:1021D000814B98470125B8E76788A4887F4B1B6827
:1021E000186800905968019104227D4B9847034676
:1021F0000028AAD04FF00408794E09E0009803782F
:102200001844009042460199B047034600289CD0EC
:102210009A78A242F2D1DA78BA42EFD100936F4BAA
:102220001C69002C91D0012663686A46314620461D
:10223000984718B12468002CF6D186E763686A468F
:1022400000212046984700287FF47FAF00231A46DC
:10225000194618465F4CA047012576E762780A2A9E
:102260003FF673AF01A151F822F000BF53234000A5
:102270004B2140004B2140004B2140004B214000AE
:102280004B214000992240004B2140003B2340005D
:102290004B21400097234000E7886388DAB24F491A
:1022A000097F013939420CBF012400241B0A022B8B
:1022B00011D0032B2BD0012B7FF447AF474B19686C
:1022C00000233A46122F28BF122209683046414C9B
:1022D000A047012539E7414B1B680132D2B259684A
:1022E0001868404B9847014600283FF42EAFC2784B
:1022F000837803EB02239BB29F4201D925461F46F8
:102300002B463A463046334CA04701251DE7334B58
:102310001B6859681868344B9847014600283FF4F9
:1023200014AF03789F4201D925461F462B463A46F3
:102330003046284CA047012507E728494B69CA7E4B
:102340001A700023012249693046224CA04701251A
:10235000FBE603F01F03012B0ED9022B7FF4F5AE31
:10236000A0880221C0B21C4B98470028FFF6EDAEB2
:1023700000F00100009001E00023009317494B6931
:10238000BDF800201A800023022249693046114C12
:10239000A0470125D9E6114B1E69002E3FF4D5AEAA
:1023A000022773682246394630469847002803DAE8
:1023B0003668002EF5D1C8E608494B69187000232D
:1023C000012249691846034CA0470125BDE600BF1C
:1023D000311F400009214000E50940009C014020D8
:1023E000F524400075254000DD25400008B5012892
:1023F00007D010B1022808D008BD0648064B984700
:1024000008BD0648044B984708BD0548024B98474D
:1024100008BD00BFA0014020BD0A4000A40140202B
:10242000A801402038B5054640F299220C490030F9
:1024300018BF01200B4B98470B4B984700280EDB29
:102440000A4C202200212046094B98476561094922
:102450000020094CA04709490120A047002038BDB1
:1024600050274000950A40004D0740009C01402045
:10247000BF2640006D1F4000B5074000E920400026
:1024800008B501460148024B984708BDAC01402001
:10249000BD0A400008B50A4B9B7E5BB968B1084B8A
:1024A00018600268D2791A7701229A76054B98470C
:1024B000002008BD6FF0030008BD6FF0080008BDE4
:1024C0009C014020C107400008B5014B984708BD5A
:1024D000CD074000014B5869704700BF9C01402068
:1024E000034B987E00F01003002B18BF102070479C
:1024F0009C014020884214D20378012B13D910B4D8
:10250000447894420AD01844814206D90378012BBA
:102510000BD944789442F6D100E000205DF8044BDA
:10252000704700207047002070470020F6E788427F
:1025300016D20378012B15D94278042A14D0052A23
:102540000BD01844814209D90378012B0ED9427867
:10255000042A0DD0052AF4D10BE070470020704703
:10256000002070470020704700207047002070470F
:102570000020704738B50C4615460222164B984786
:102580000346E8B184421DD90278012A1CD9427859
:10259000022A1BD14279AA4212D0D9789A7802EB4A
:1025A000012213FA82F39C4209D91A78012A0FD921
:1025B0005A78022A0ED15A79AA42EED100E00023BD
:1025C000184638BD0023FBE70023F9E70023F7E7AF
:1025D0000023F5E70023F3E7F5244000884217D2F3
:1025E0002DE9F0410D46164600244FF003080C4F2C
:1025F00042462946B847034670B1007801280AD9F7
:10260000A64209D0184401348542F1D8002303E0E2
:1026100000231846704700231846BDE8F08100BF2C
:10262000F524400008B50548054B9847054B9847E9
:102630000548064B9847064B984708BDFC014020CB
:1026400025244000791E40001400402095244000BD
:10265000C924400008B5014B984708BD2526400015
:1026600070B50D4E0D4CA41BA4100025A54209D138
:102670000B4E0C4C00F078F8A41BA4100025A542CA
:1026800005D170BD56F8253098470135EEE756F86C
:10269000253098470135F2E7742740007427400041
:1026A000742740007827400010B5431E0A44914229
:1026B00000D110BD11F8014B03F8014FF7E70244B8
:1026C0000346934200D1704703F8011BF9E7034624
:1026D00013F8012B002AFBD1181A013870470000AB
:1026E0002E2E2F68616C2F7372632F68616C5F737D
:1026F00070695F6D5F73796E632E63002E2E2F6895
:10270000616C2F7574696C732F7372632F757469A4
:102710006C735F6C6973742E630000002E2E2F683B
:10272000706C2F7370692F68706C5F7370692E63A3
:10273000000000002E2E2F68706C2F757362687376
:102740002F68706C5F75736268732E630000000001
:102750002E2E2F7573622F6465766963652F7573EE
:102760006264632E63000000F8B500BFF8BC08BCCB
:102770009E46704765014000F8B500BFF8BC08BC34
:082780009E4670474101400034
:1027880074657374696E672E2E2E0A0000000000AF
:10279800F51B40001C00402071004020120100027F
:1027A80002000040EB0304240001000000010902BC
:1027B8004300020100803209040000010202000007
:1027C8000524000110052401010004240202052447
:1027D8000600010705830340000A09040100020AF4
:1027E80000000007050202400000070581024000C2
:0427F80000000000DD
:0400000500400000B7
:00000001FF
