:020000040040BA
:1000000010134020C9014000C5014000C501400057
:10001000C5014000C5014000C501400000000000CE
:10002000000000000000000000000000412040002F
:10003000C501400000000000E120400045214000D3
:10004000C5014000C5014000C5014000C501400098
:10005000C5014000C5014000C5014000C501400088
:10006000C501400000000000C5014000C50140007E
:10007000C5014000C5014000C5014000C501400068
:10008000C5014000C5014000C5014000C501400058
:10009000C50140006D0D4000C5014000C501400094
:1000A000C5014000C5014000C5014000C501400038
:1000B000C5014000C5014000C5014000C501400028
:1000C000C5014000C501400015124000C5014000B7
:1000D00000000000C501400000000000C501400014
:1000E000C5014000C5014000C5014000C5014000F8
:1000F000C5014000C5014000C5014000C5014000E8
:10010000C5014000C5014000C5014000C5014000D7
:10011000C5014000000000000000000000000000D9
:10012000C5014000C5014000C5014000C5014000B7
:10013000C501400000000000C5014000C5014000AD
:1001400010B5054C237833B9044B13B10448AFF311
:1001500000800123237010BD6C00402000000000CF
:10016000104640000C4B43B10C480D4910B5AFF39D
:1001700000800C48036823B910BD0A48036833B9EE
:100180007047094B002BF7D0BDE810401847064BCD
:10019000002BF5D0184700BF0000000010464000BB
:1001A0007000402010464000000000007047000032
:1001B00008B5024B9847024B984708BD29034000F9
:1001C00089444000FEE7000008B5174B174A9A42E1
:1001D00010D0174B144A9A420CD2013B9B1A23F0C1
:1001E000030304331344114951F8040B42F8040B80
:1001F0009A42F9D10F4B104A9A420AD2013B9B1AFC
:1002000023F0030304331344002142F8041B9342F8
:10021000FBD10A4A0A4B23F07F039360094B9847AE
:10022000094B9847FEE700BF000040201046400001
:100230006C0040200C0D40206C00402000ED00E0E0
:100240000000400095444000451E4000114B1A6FCD
:1002500042F480121A675A6F22F480125A674FF4E0
:1002600080125A601A6F42F400121A675A6F22F411
:1002700000125A674FF400125A601A6F42F480025B
:100280001A675A6F22F480025A674FF480025A604C
:10029000704700BF00140E40044B9B6913F4001F0D
:1002A00003D14FF40012014B1A61704700060E4053
:1002B00010B5064B9847064C06492046064B984712
:1002C0002046064B9847064B984710BD99024000C0
:1002D000D00C402000800040B105400035064000B1
:1002E0004D02400008B50248024B984708BD00BFC8
:1002F00010E000E0C9034000054BD3F8083113F0CB
:10030000040F03D10422024BC3F80021704700BF41
:1003100000060E4008B5024B9847024B984708BDAF
:10032000F9024000B908400008B5194B9847194B2D
:100330009B6913F4805F03D14FF48052154B1A610F
:10034000144B9B6913F4803F03D14FF48032114B5F
:100350001A61114A536843F4004353600F4B4FF442
:1003600080721A611A631A604FF000421A611A63B0
:100370001A6003F500734FF000721A611A631A6075
:10038000074B9847074B9847074B984708BD00BF56
:10039000690C400000060E4050180E4000120E403E
:1003A000B1024000E502400015034000EFF3108366
:1003B000036072B6BFF35F8F7047BFF35F8F036850
:1003C00083F310887047000008B5024B1860024B99
:1003D000984708BD88004020E90F400070B51546D9
:1003E00004460E46002818BF002914BF0120002033
:1003F0006E221049104B984700232361E660656127
:10040000A361E3610121A4F11C000C4B98474FF05C
:10041000FF3104F108000A4B9847002806DBE36926
:10042000002B0CBF28466FF0050070BD6FF0070071
:1004300070BD00BF04454000010C4000E90E4000C3
:10044000F11E400070B5154604460E46002818BF40
:10045000002914BF0120002046221349134B98475E
:1004600026610023E3606561A361E361A4F11C06DA
:10047000012130460E4B984740F2FF1130460D4B9C
:1004800098474FF0FF3104F108000B4B98470028C4
:1004900006DBE369002B0CBF28466FF0050070BD3A
:1004A0006FF0070070BD00BF04454000010C400024
:1004B0001D0F40005D0F4000F11E400001B9704764
:1004C00038B50D4604460021054B984700212046CB
:1004D000044B9847A56304F12400034B984738BDAB
:1004E000E90E40001D0F4000AD1E400010B504464F
:1004F0000379012B826A436B03F10101416394BFCD
:10050000D15C32F81310084B9847626B236B9A4208
:1005100000D210BD00212046044B984704F124006E
:10052000034B9847F5E700BF5D0F4000E90E400020
:10053000AD1E400070B504460379012B14D9C66A7C
:10054000456B6B1C4363164B984726F81500636B8D
:10055000226B93421BD2A26AA2B1217961B9D15C0C
:100560002046104B984770BDC66A456B6B1C4363B1
:100570000B4B98477055EAE732F813102046094BA9
:10058000984770BDE1882046064B984770BD002112
:100590002046054B984704F12400044B984770BD52
:1005A0008D0F40005D0F40001D0F4000AD1E40004C
:1005B000F8B504460D46002818BF002914BF0120D5
:1005C0000020D3221149124B984729462046114B4F
:1005D0009847064608B13046F8BD0F4A002120462C
:1005E0000E4FB8470E4A01212046B8470D4A022156
:1005F0002046B84725600C4B23620C4BE361002179
:1006000004F124000A4B9847E5E700BF0445400089
:10061000010C4000410E4000ED044000B90F4000C5
:1006200035054000BD04400045044000DD034000A6
:10063000751E400010B50446FF220749003018BF60
:100640000120064B98472046054B98470028B4BF29
:100650006FF01000002010BD04454000010C400068
:10066000950E40000F4B5978884218D030B41A4686
:10067000002300F00F0507E001335BB2042B09D023
:1006800020325178814207D01478002CF4D18D4269
:10069000F2D101E04FF0FF33184630BC7047002321
:1006A000184670478C0040200020704738B504463B
:1006B0000D46094B9847094B03EB40139B78032BDE
:1006C00001D0002038BD054B03EB4010836929465B
:1006D0002046984738BD00BF650640008C0040208A
:1006E000F0B585B006460D4617464D4B9847044673
:1006F000002D5BD14B4A4301D1180020C870D35C58
:1007000073B1484B03EB441301229A70454800EB48
:100710004410C3693A46C1783046984705B0F0BDE9
:100720008B78032B0BD03F4800EB44121446D3695F
:100730000C320021607898470223A370EEE70B4645
:1007400091F90C500A46CE690C3201215878B04715
:10075000A0B1344B03EB441305229A700222DA70E5
:10076000002D09DB2F4800EB4410407840F080005A
:1007700001212D4B9847D1E75878F9E7294800EB3C
:100780004410042383704378002201920292954220
:10079000ACBF43F0800303F00F038DF80C3001234E
:1007A0008DF80D3001A8214B9847B7E7012D0AD0ED
:1007B000022D1CD0032D2AD01A4B03EB4013062226
:1007C0009A70DA70A2E7174A4301D1180220C87064
:1007D000D35C2BB1134B03EB441305229A7095E7BE
:1007E0000B469870002130460F4B98478EE70D4A14
:1007F0004301D1180420C870D35C2BB1094B03EB23
:10080000441301229A7081E702238B7086E7054B1F
:1008100003EB401300229A700522DA7076E700BFDE
:10082000650640008C004020651A4000211C4000F5
:100830002DE9F04105461C4B984706461B4C04EB3E
:1008400040140C3421462846194B9847C0B208285A
:1008500009D001212846174CA047012145F080000E
:10086000A047BDE8F08100212846124FB84745F067
:10087000800800214046B8470C4B03EB4613012289
:100880009A705B6921462846984708B1BDE8F08117
:10089000064B03EB46160523B37001212846B847E3
:1008A00001214046B847F1E7650640008C00402032
:1008B000BD1B4000651A400010B5114B9847002839
:1008C0001CDB104C8022002120460F4B984723460A
:1008D00004F18000FF210D4A59705A619A61DA6172
:1008E00020338342F8D10A4900200A4CA0470A4924
:1008F0000120A04709490220A047002010BD00BFE9
:10090000151640008C004020F3444000A90640002A
:1009100031084000951D4000AD064000E106400052
:1009200008B5014B984708BD711D400008B5014B43
:10093000984708BD6516400008B5014B984708BDAB
:10094000B116400008B5014B984708BDC1164000DC
:10095000F8B506460C4617460F4B9847002814DAA0
:10096000FF200D4B9847051E12DB3A4621463046C4
:100970000A4B984700280DDB094B68011A1856707E
:1009800004F003041C540020F8BD6FF01300F8BD00
:100990006FF01400F8BD00BF65064000E11640008E
:1009A0008C00402008B5024600210846014B9847BC
:1009B00008BD00BF5109400038B50546064B9847B1
:1009C000041E07DB2846054B9847054800EB4410FA
:1009D000FF23437038BD00BF650640001918400072
:1009E0008C00402038B505460E4B9847041E16DB98
:1009F00063010D4AD35C002B0CBF022201220A4B7B
:100A000003EB44139A702846084B9847002800DBF4
:100A100038BD054B03EB44140023A37038BD6FF0C1
:100A20001100F5E7650640008C0040207518400075
:100A30002DE9F04786B00446077A38463F4B984781
:100A4000657AD4F80480061E72DB04A83C4B9847F4
:100A50003C4B03EB46139B788DF817309DF817300D
:100A6000DBB2012B11D004A8374B98479DF8173003
:100A7000DBB2052B5FD0062B23D0002B0CBF6FF011
:100A80001200012006B0BDE8F087DFF8B8A04FEAF9
:100A900046190AEB090303229A7004A82A4B9847C7
:100AA0001AF8093083B1227A003518BF012523686E
:100AB0000193CDF8088017F0800F19D102F00F03D1
:100AC00018E06FF00F00DDE71E4B03EB4613DA7CF6
:100AD0009D7C05EB0225ADB2A5B91A4B03EB46167A
:100AE0000423B37000230125227A21680191029327
:100AF00042F080038DF80C308DF80D5001A8134B97
:100B00009847BFE74346A84528BF2B460D4A02EB4E
:100B1000461696F90C20002A05DB227A21680191FD
:100B200002930025CAE79D4294BF00250125DBE71B
:100B30006FF01100A6E70220A4E700BF65064000A1
:100B4000AD0340008C004020BB034000211C40004E
:100B500038B5044631B101290CBF01210221124BE5
:100B6000984738BD114B9847051E1ADB104B03EB15
:100B700045139B78052B01D0002038BD002120466D
:100B8000094B98470028F8DB094B03EB4515012377
:100B9000AB700321E970EB690022204698470020E2
:100BA00038BD6FF0110038BD651A40006506400081
:100BB0008C00402038B50D4614460E4B98470E4B1E
:100BC000002C08BF1C46002813DB012D08D015B1EE
:100BD000022D0AD038BD094B03EB4010446138BDEB
:100BE000064B03EB4010846138BD044B03EB40100F
:100BF000C46138BD65064000A90640008C00402055
:100C000000B900BE704703684BB18B4209D01B6826
:100C10001BB19942FBD10120704700207047002092
:100C2000704701207047000070B505460E46046805
:100C30000A4B984780F0010059220949C0B2094B7C
:100C400098472B681BB92E60336070BD1C46236823
:100C5000002BFBD12660336070BD00BF070C400045
:100C600020454000010C400000B583B001A80E4BA8
:100C700098470E4AD2F8883043F47003C2F888309F
:100C8000BFF34F8FBFF36F8F01A8094B9847094AF5
:100C9000136823F4706343F4A0631360064B984712
:100CA00003B05DF804FB00BFAD03400000ED00E0C1
:100CB000BB034000000C0E40BD0C400026490A6AF0
:100CC00022F00202254B13430B620A46936E13F087
:100CD000010FFBD0204B196A214A0A431A62996A14
:100CE000204A0A409A62204A9A621A46936E13F08A
:100CF000020FFBD04FF47102174BDA611A46936E64
:100D000013F0400FFBD0144A136B43F400531363EA
:100D1000936E13F0080FFBD00F4A136B23F0700390
:100D20001363936E13F0080FFBD00B4A136B23F47D
:100D3000407343F480731363936E13F0080FFBD07A
:100D4000054A136B23F0030343F002031363936E0E
:100D500013F0080FFBD0704700060E40013E37002D
:100D600000003701FFFF00F8013F182008B5114BC4
:100D700018680268D3691269134013F0010F0AD191
:100D800013F0020F0AD113F4007F0AD140F20C5283
:100D900013420AD108BDC368984708BD83689847C5
:100DA00008BD03690021984708BD03696FF012016F
:100DB0009847EFE70C01402038B505460C461B4B21
:100DC0000B44C3F30743052B0DD140F24F121849D2
:100DD000002818BF002C14BF01200020154B984795
:100DE0006FF00C0038BD40F24F121149002818BFB7
:100DF000002C14BF012000200E4B9847236913F4E8
:100E0000803F0FD1802323602C604FF0004323608C
:100E1000094B6360094B23634FF6FF73EB8000209F
:100E2000287138BD6FF0100038BD00BF0080FFBFD3
:100E300040454000010C400011000E00029696044F
:100E400038B504460D460F4B9847002814DB0023A5
:100E50002361E360A3600C4B9D420ED02A2303F074
:100E60001F0101228A405909084B03EB8103C3F893
:100E70008020C3F88021002038BD054B1C6015235D
:100E8000EDE700BFB90D40000080004000E100E048
:100E90000C01402010B50446D8B10068003018BFDE
:100EA00001204FF4CA720C490C4B98472368012269
:100EB0001A600B4A93420CBF15232A23590903F0E9
:100EC0001F03012202FA03F3064A42F821300020F0
:100ED00010BD0020E5E700BF40454000010C400088
:100EE0000080004000E100E038B50D46046840F2A3
:100EF0006F220849002818BF002C14BF01200020D1
:100F0000054B98471DB90223A361002038BD022379
:100F10006361FAE740454000010C4000F8B50F4618
:100F200004680C4E40F27E223146003018BF01208A
:100F3000094DA84740F27F223146201C18BF0120EE
:100F4000A8471FB90123A3610020F8BD01236361F5
:100F5000FAE700BF40454000010C400038B50D469F
:100F6000044660B10068003018BF01204FF42772BA
:100F70000449054B98472368DD60002038BD0020F8
:100F8000F4E700BF40454000010C400010B50446A6
:100F900060B10068003018BF012040F2A52204496A
:100FA000044B98472368986880B210BD0020F4E78E
:100FB00040454000010C400070B50D461646044601
:100FC0004FF42C720649003018BF0120022D88BF53
:100FD0000020044B984704EB8504A660002070BDF8
:100FE00040454000010C4000034B6FF07F425A60C7
:100FF00005221A60704700BF10E000E07047002033
:101000007047000008B5837C03F00F03C27C02F038
:101010000701012908D0154A02EB83030422C3F813
:101020006021C3F8202208BD12F0400F0CD0C27C12
:101030006FF38612C2740D4A02EB83020121C2F8DB
:1010400090110221C2F86011C27C6FF3C302C27416
:10105000064A02EB83031822C3F86021C3F820225A
:10106000034B9B68807C984708BD00BF008003400D
:101070001001402038B5847CFF2C03D0C37C13F0D2
:10108000400F00D138BDC27C6FF38612C274034A90
:10109000156982682046A847F4E700BF1001402088
:1010A0002DE9F0410F4B1A6822F080021A601A688D
:1010B00022F07F021A601A6842F080021A600A4D1C
:1010C00005F1140464354FF00308084FFF2641462C
:1010D0002046B847A6740023E3741434AC42F6D11A
:1010E000BDE8F081008003401001402075104000F1
:1010F000C27C12F0400F67D0F8B5817C01F00F017F
:10110000876843689F4221D0DB1BB3F5803F26D818
:101110001E0402F09005802D25D002F00702022A5D
:1011200024D046F01406026817444A1ED2B2274C57
:1011300002F1310504EB05156F6004EB0214D4F8DD
:101140001C4314F0100F15D083684360C37C03F078
:101150009003902B20D000211D4B9847F8BD00260E
:101160004FF48033D5E746F00806DCE7028A934265
:10117000D9D8D6E746F02106144C04EB0212C2F887
:10118000186382681A448260C36001394FF00073AB
:1011900003FA01F1A161F8BD0C4B03EB81030122BD
:1011A000C3F86021D3F8302112F4803F02D001222D
:1011B000C3F890210122C3F8F0214FF4805303FAC1
:1011C00001F1024B9961F8BD704700BF00800340F8
:1011D00075104000837CFF2B16D010B5C47C14F032
:1011E000400F0AD003F00F0341B1643301240749D3
:1011F00041F823401146064B984710BD583302244E
:10120000024941F82340F5E7704700BF00800340E2
:10121000751040002DE9F04F85B0AA4A5168136956
:101220000B40C3F30B374FEA536817B9B8F1000FFF
:1012300002D0A54C00258AE053689BB21269134086
:1012400013F0040F17D113F0020F1DD113F0700F1C
:1012500021D113F0080F2AD113F0010FE9D0994BD7
:1012600001229A605A6170229A61974B5B68002153
:101270000420984705E00422924B9A60924B1B6829
:10128000984705B0BDE8F08F02228E4B9A608E4BD6
:101290001B689847F5E78B4B10229A605A61012230
:1012A0009A61894B5B68002102209847E9E7854BEA
:1012B00008229A6070225A6101249C61834B9847EE
:1012C000814B5B68002120469847DAE706F00F065D
:1012D0000123B3403B4236D07A4B03EB860BDBF85D
:1012E0003031DBB2DBF8C02113402CD013F0400FBB
:1012F00022D105EB8502744901EB820292F8272086
:10130000019212F0400F58D0019A12F0800F5BD179
:1013100013F0200F40F0038113F0020F40F00F8113
:10132000019A02F00702012A0DD113F0040F0AD02E
:101330005046674B984706E04023CBF82032012106
:101340005046644B984701351434042D99D0A94672
:10135000009494F82660FF2EF5D004F1140A002FB3
:10136000B4D1B8F1000FEED06B1EDBB2062BEAD879
:1013700006F00F06711E01238B4013EA080FE2D01E
:10138000CBB2504A02EB0312D2F81C2312F0010F29
:10139000D9D14FF000728A404A494A6101EB0313E8
:1013A000D3F81C23120C04D00099CB699B1ACB6193
:1013B0008B615046484B9847C5E713F0040FC2D0E5
:1013C0005046434B9847BEE713F0010F0BD1019AEB
:1013D00002F00702012AB6D113F0040FB3D0504631
:1013E0003B4B9847AFE7009B988C40F2FF33984205
:1013F0002FD0421E92B2019B03F007030293009B81
:101400009E46D969DEF81830994267D3019911F0E8
:10141000100F21D00021CEF8201009EB89032A4AB1
:1014200002EB830393F8272061F3041283F827204B
:101430000123CBF860310823CBF86031CBF8F031D1
:10144000029B012B3FF47FAF4FF48043CBF8203257
:1014500079E740F2FF32CEE7009B1B6A0121CBF80F
:1014600020120299012905D04FF4805101FA06F6A5
:1014700014494E61009EF169B161B08C1A409042EE
:101480001BD11423104A03FB092393F827206FF381
:10149000861283F827200C4BDB6896F826009847C5
:1014A00000287FF450AF1423074A03FB092393F865
:1014B000272042F0400283F8272000215046054BA8
:1014C000984740E70080034010014020A1104000F1
:1014D0000510400075104000F11040005B1A9BB2EF
:1014E000984228BF18468146009B5B690246194412
:1014F000424800EBC630424B9847009AC2F8209011
:10150000D3694B44D3610123CBF86031029B012B9B
:101510003FF419AF4FF48043CBF8203213E7202378
:10152000CBF8603105EB8509364B03EB890393F863
:1015300027100422C9095046334B984703E7DBF8CC
:101540003031C3F30A5319460293009A9369D06964
:101550000222CBF86021002943D01B1A9BB299428A
:101560003CD9029301230393009B5B69029A2349B0
:1015700001EBC6311844224B98470099CB69029879
:101580000344CB610B4618624FF48043CBF8203202
:10159000009B9B8C029A934226D909EB8903194A36
:1015A00002EB830393F827206FF3041283F82720BC
:1015B0000223CBF82032019B03F00703012B05D057
:1015C0004FF4805303FA06F6104B5E61009AD3691C
:1015D0009361002150460E4B9847B4E600230393D5
:1015E000C2E700230393D3E70099CA698B699A4243
:1015F000DED2039B002B3FF4A6AED9E7000010A07B
:10160000DD44400010014020D5114000008003401F
:101610007510400008B50E4BD3F8003813F4004F96
:1016200013D10C4B0C4A1A605A609A600B49D9606E
:101630001A610B4B9847064B4FF00072C3F8002815
:101640004FF450621A60002008BD6FF0100008BD12
:101650000080034010014020FD0F4000FF0F4000BC
:10166000A1104000104BD3F8003813F4004F0CD1F8
:101670000D4BD3F8002822F48042C3F80028D3F899
:10168000002842F40042C3F80028074AD2F8043880
:1016900013F4804FFAD01D22034B9A610422034BAE
:1016A0005A600020704700BF0080034000E100E066
:1016B000024A136823F4807313607047008003406C
:1016C000064B1A6822F07F0200F07F00104318607A
:1016D0001A6842F080021A60704700BF0080034021
:1016E0002DE9F04707468A46154600F00F064FEAF7
:1016F000D01840F2FF3940F2D94242494D458CBFE3
:1017000000200120404B98474D4527D06B1E2B42AF
:101710000CBF01200020DFF8EC9040F2DA4249468D
:10172000394CA04740F2DB424946072D94BF0020C8
:101730000120A0470AF0030A032E5AD806EB8603BD
:10174000324A02EB830393F82630FF2B55D1BAF1CE
:10175000030F21D8DFE80AF0280404280120DAE783
:1017600001212B4A02EB8602D2F80001294B0340EB
:101770008900B5F5007F19D8B5F5807F2FD8802D69
:101780002FD8402D2FD8202D2FD8102D2FD8082D11
:1017900094BF002001200AE04FF49F621949002005
:1017A000194B98470021DCE70021DAE7072043EADC
:1017B000CA2343EA08230B4343EA0013C2F800316B
:1017C000124BB200911903EB81018D840AF10104DF
:1017D00081F8274081F826700020BDE8F0870620B8
:1017E000E5E70520E3E70420E1E70320DFE7022047
:1017F000DDE76FF01100BDE8F0876FF01300BDE882
:10180000F08700BF58454000010C40001001402007
:101810000080034083E6FFFF38B500F00F04032C7F
:1018200021D804EB8403104A02EB830393F826309B
:10183000FF2B18D01546631C03EB83030322C10959
:1018400005EB8300094B9847094AD36923EA04034F
:10185000D361A3001A1905EB8202002182F8271038
:10186000FF2382F8263038BD10014020D5114000FA
:10187000008003402DE9F04700F00F04032C00F234
:10188000DC8040B204EB8403744A02EB830393F8D8
:101890002630FF2B00F0D580002C3CD00123A34044
:1018A0009EB2022C28D86E4AD26912F0080F0ED0D0
:1018B00043F00806B6B26A4AD36923F00803D3613D
:1018C0000C32D2F8003123F00203C2F80031012CAF
:1018D00012D8634BDB6913F0040F0DD046F00406F9
:1018E0005F4AD36923F00403D3610832D2F8003190
:1018F00023F00203C2F80031234604EB8401574A67
:1019000002EB81019446564D4FF0010E6FEA00083C
:101910004FEAD8782AE0524BD3F8002142F0020275
:10192000C3F80021DA6942F00102DA61D3F83031FC
:1019300013F4802F00F0898004EB8403474A02EB04
:10194000830393F8273003F00703012B48D00028C6
:101950006BDB58340222424B43F824200020BDE8C0
:10196000F08701331431DAB2032AE5D846FA03F2DC
:1019700012F0010FF5D003EB83020CEB820292F818
:101980002770C7F380196FF3861782F8277005EB6D
:101990008302D2F8007147F00207C2F80071D5F84F
:1019A0001CA00EFA03F747EA0A07EF61D2F830717C
:1019B00017F4802F4DD0D2F8007127F40077C2F8C9
:1019C0000071B9F1000FCCD05A1ED2B2062AC8D984
:1019D000B8F1000FC5D0CA690F6AD21BCA61C0E74F
:1019E0001F4901EB84030225C3F860510120C3F8AD
:1019F000900104EB840402EB840494F8263003F095
:101A00000F0301EB83024124C2F86041C2F8605128
:101A10000624C2F8F041C2F820024FF4805202FAC4
:101A200003F38B610020BDE8F087643401220C4B86
:101A300043F824200020BDE8F0876FF01100BDE8D6
:101A4000F0876FF01100BDE8F0876FF01400BDE87B
:101A5000F0876FF01400BDE8F08700BF1001402050
:101A60000080034000F00F00032800F29980012954
:101A700016D000293FD000EB80004E4B03EB8000D6
:101A800090F8263003F00F024B4B03EB8203D3F8A0
:101A90003021D3F8C001C0F3801000EA92107047E3
:101AA00000EB8003434A02EB830393F8273013F0E3
:101AB000080F78D110B413468200111803EB81018E
:101AC00091F8261001F00F043B4901EB84014024FA
:101AD000C1F8F0414FF40024C1F8F041104403EB89
:101AE000800090F8273043F0080380F8273000206A
:101AF0005DF8044B704700EB80032E4A02EB830332
:101B000093F8263003F00F032B4A02EB8303D3F83C
:101B10003021D3F8C01112F0400F46D011F0400F21
:101B200043D04022C3F82022C3F82022D3F830212A
:101B300012F0400F0BD04022C3F86021D3F83021BF
:101B400022F44072C3F89021D243C3F8602100EB25
:101B50008002184901EB820292F8272002F0070266
:101B6000012A0CD000EB8000124B03EB800393F8AA
:101B700027206FF3C30283F8272000207047D3F893
:101B8000303113F0400F12D100EB800001EB8003E5
:101B900093F827206FF3C30283F8272000207047B3
:101BA0006FF0110070470020704700207047002040
:101BB000704700BF100140200080034000F00F007C
:101BC000154B03EB8003D3F83021032821D830B420
:101BD0000C46C1B1D3F8001111F4C05F16D1D3F88F
:101BE000301111F0040F02D1002030BC70470B4DB2
:101BF00005EBC03503CD206061600421C3F860119E
:101C0000C2F30A50F1E76FF01100EEE76FF0120037
:101C1000EBE76FF01100704700800340000010A058
:101C20002DE9F04F83B0067A06F00F0404EB84022E
:101C30004A4B03EB82039D8C40F2FF339D4201D05F
:101C4000013DADB204EB8403444A02EB830393F8F5
:101C50002780032C7ED818F0080F03D0022003B091
:101C6000BDE8F08F0746D0F804A001A83C4B984788
:101C700004EB8403394A02EB830393F8273013F013
:101C8000400F4FD176B204EB8409344B03EB890942
:101C900099F8273043F0400389F8273001A8314BE9
:101CA00098473B68C9F814307B68C9F8183000239E
:101CB000C9F81C30C9F82030F20F99F8273062F3C8
:101CC000C71389F8273015EA0A0F0CBF0123002338
:101CD0007A7A002A0CBF002303F0010399F8272029
:101CE00063F3041289F82720631EDBB2062B1ED98A
:101CF00008F00703012B04D04FF48053A3401A4A85
:101D00009361194B03EB8404D4F8003123F400737E
:101D1000C4F80031002EB4BF01230223C4F8F0310F
:101D200000209CE701A80F4B9847012097E70E4B36
:101D300003EB8403D3F8002142F40072C3F80021BE
:101D4000013404EB8404054800EB8400074B9847FA
:101D5000002084E76FF0110081E700BF10014020F0
:101D6000AD034000BB03400000800340F110400081
:101D7000064B002908BF1946012803D008B9044BB7
:101D800019607047024B5960704700BFFD0F40005B
:101D900010014020094B002908BF194620B1012835
:101DA00005D0022806D07047054B99607047044B58
:101DB000D9607047024B1961F5E700BFFD0F400085
:101DC0001001402008B54FF47A75024C2846A04710
:101DD000FCE700BF0932400008B54FF47A75024CA9
:101DE0002846A047FCE700BF0932400010B582B08A
:101DF00000230193012200921B2204490448054C50
:101E0000A047012800D0FEE702B010BD7445400095
:101E1000C51D40004D2D400010B582B00023019338
:101E200000934B2204490548054CA047012800D0E7
:101E3000FEE702B010BD00BF78454000D91D40004C
:101E40004D2D400008B5064B9847064B9847064B6A
:101E50009847064B9847064B9847002008BD00BF9F
:101E6000B1014000AD014000ED1D4000191E4000D1
:101E7000292F400038B505460C4635220849012C6B
:101E80008CBF00200120074B984721460120064BBC
:101E900098472860002814BF00206FF0130038BD59
:101EA00080454000010C4000F125400010B50D4B6D
:101EB0005B68C3F308034BB1002100680A4B9847E5
:101EC000002814BF00206FF0020010BD00231A4646
:101ED00019460068054CA047002814BF00206FF089
:101EE000020010BD00ED00E0412940003D26400009
:101EF00010B500230A4619460068044CA047002884
:101F000014BF00206FF0070010BD00BF252A40005D
:101F100000F1080343604FF0FF328260C360036149
:101F200000230360704700230361704743684B60E0
:101F30009A688A609A685160996008610368013301
:101F40000360704730B40D68B5F1FF3F02D000F177
:101F5000080202E0026904E01A4653681C68A542C0
:101F6000FAD253684B6099608A60516008610368D7
:101F70000133036030BC7047036942688168916037
:101F80008268416851605A68904205D0002202611F
:101F9000186801381860704782685A60F6E70000D8
:101FA0000D4B1B68B3F1FF3F0AD04FF4807372B63C
:101FB00083F31188BFF36F8FBFF34F8F62B6FEE7D5
:101FC0004FF4807372B683F31188BFF36F8FBFF342
:101FD0004F8F62B6FEE700BF000040200648006851
:101FE000006880F3088862B661B6BFF34F8FBFF315
:101FF0006F8F00DF00BF000008ED00E0DFF80C008D
:10200000016841F4700101607047000088ED00E054
:102010004FF0807340F8043C40F8081C054B40F832
:102020000C3C40F8202C6FF0020340F8243C44386C
:10203000704700BFA11F400000000000000000002A
:10204000074B19680868B0E8F04F80F30988BFF3C0
:102050006F8F4FF0000080F311887047AFF300805E
:102060007C0B40204FF4807372B683F31188BFF36A
:102070006F8FBFF34F8F62B60B4A13680133136043
:10208000012B0FD1094B1B6813F0FF0F0AD04FF43F
:10209000807372B683F31188BFF36F8FBFF34F8FD6
:1020A00062B6FEE7704700BF0000402004ED00E08C
:1020B0000A4B1B6853B94FF4807372B683F31188CF
:1020C000BFF36F8FBFF34F8F62B6FEE7013B034A4A
:1020D00013600BB983F31188704700BF00004020E4
:1020E000EFF30980BFF36F8F154B1A681EF0100FC6
:1020F00008BF20ED108A20E9F04F10604DF8043D34
:102100004FF4807072B680F31188BFF34F8FBFF326
:102110006F8F62B601F0A6F84FF0000080F31188CF
:1021200008BC19680868B0E8F04F1EF0100F08BF2F
:10213000B0EC108A80F30988BFF36F8F704700BF3F
:102140007C0B402008B54FF4807372B683F311887E
:10215000BFF36F8FBFF34F8F62B6054B984718B12F
:102160004FF08052034B1A60002383F3118808BD9F
:10217000D12F400004ED00E0034A044B1A6007220F
:10218000043B1A60704700BFDF93040014E000E0D6
:1021900000B583B0244B1A78D2B20192FF221A7094
:1021A0001B78DBB28DF803309DF803301F4B002203
:1021B0001A7007225A609DF8033013F0800F10D078
:1021C000062200E00A469DF803305B00DBB28DF882
:1021D00003309DF80330511E13F0800FF2D1134BE2
:1021E0005A60124A53681B0203F4E0635360019B78
:1021F000DBB20D4A13700E4B1A6842F0E0721A609F
:102200001A6842F040421A600A4B984700220A4B73
:102210001A600A4B98470A4A136843F04043136018
:10222000084B9847084B984700E400E074014020B1
:1022300020ED00E07921400000004020FD1F40001B
:1022400034EF00E0DD1F4000A11F4000EFF30583E5
:102250000F2B11D9124A9B5CDBB2124A12789A42B8
:102260000AD94FF4807372B683F31188BFF36F8F6E
:10227000BFF34F8F62B6FEE70B4B1B6803F4E063BE
:10228000084A526893420AD94FF4807372B683F3B6
:102290001188BFF36F8FBFF34F8F62B6FEE77047B1
:1022A000F0E300E0740140200CED00E038B5044696
:1022B00010F0070F02D020F007040834104B9847A5
:1022C000104B1B6893B10F4BD3F864391C44A342E5
:1022D00013D240F6571294420FD80A4A15681D448B
:1022E000C2F86449084B9847284638BD054A02F1B0
:1022F0000C0323F007031360E5E70025F2E700BFB6
:10230000B12F40007C014020F930400050B14FF423
:10231000807372B683F31188BFF36F8FBFF34F8F53
:1023200062B6FEE77047000070B504461646856B3E
:10233000026C52B90368002B2AD14068174B9847AA
:10234000002363600135A56370BD6EB98068144BCE
:102350009847A368226C1344A3606268934219D320
:102360002368A3600020EDE7C0680D4B9847236CFD
:102370005B42E2681A44E26021688A4202D26268E3
:102380001344E36045B1022E06D1013D0020D9E798
:102390000020D7E70020D5E70020D3E7A53540008F
:1023A000DD44400070B582B00190846C74B1A26BC2
:1023B000E36B9A4215D34FF4807372B683F311889E
:1023C000BFF36F8FBFF34F8F62B6FEE74FF480739A
:1023D00072B683F31188BFF36F8FBFF34F8F62B66E
:1023E000FEE7A26B934203D80026304602B070BDD0
:1023F0000A4694F845506DB201A920460A4B984709
:102400000646B5F1FF3F0AD1636A002BEDD004F117
:102410002400064B9847002818BF0126E5E76B1CEF
:102420005BB284F84530E0E7292340009533400053
:10243000026C72B110B50346C4681444C4604068AD
:10244000844201D31868D8600846D968014B984780
:1024500010BD7047DD4440002DE9F0410546234B97
:10246000984795F8454064B2002C19DD204EDFF8FE
:102470008C80204F08E06B6A93B105F12400B847C7
:1024800060B9013C64B25CB1AB6C002BF3D00021AD
:102490002846B0470028F4D0C047F2E7C047F0E72D
:1024A000FF2385F84530144B9847104B984795F813
:1024B000444064B2002C12DD2B6983B105F1100792
:1024C0000C4EDFF8388004E0013C64B23CB12B696B
:1024D0002BB13846B0470028F6D0C047F4E7FF23B9
:1024E00085F84430044B9847BDE8F08165204000F2
:1024F000A523400095334000B1204000E93440005E
:1025000038B530B304460D461D4B98472268216C00
:10251000E36B03FB01F3D01860600020A063A260AE
:102520005B1A1344E360FF2384F8443084F8453099
:10253000D5B92369FBB104F11000124B9847D0B113
:102540004FF08052104B1A60BFF34F8FBFF36F8F65
:1025500011E04FF4807372B683F31188BFF36F8F6D
:10256000BFF34F8F62B6FEE704F11000074DA84796
:1025700004F12400A847064B9847012038BD00BF4E
:10258000652040009533400004ED00E0111F40003D
:10259000B1204000F8B550B94FF4807372B683F3A0
:1025A0001188BFF36F8FBFF34F8F62B6FEE7064609
:1025B00017460D4601FB00F054300B4B984704467C
:1025C00078B11DB100F15403036000E02060E663C0
:1025D000256401212046054B984784F8507000235C
:1025E000A3642046F8BD00BFAD2240000125400095
:1025F00050B94FF4807372B683F31188BFF36F8FB5
:10260000BFF34F8F62B6FEE788420AD24FF4807361
:1026100072B683F31188BFF36F8FBFF34F8F62B62B
:10262000FEE710B50C4602220021034B98470346F3
:1026300000B18463184610BD952540002DE9F04F88
:1026400085B00192B8B1044601B3022B2CD01E46CE
:102650000F46694B9847002834D1019B002B39D095
:102660004FF4807372B683F31188BFF36F8FBFF39B
:102670004F8F62B6FEE74FF4807372B683F3118812
:10268000BFF36F8FBFF34F8F62B6FEE7026C002A75
:10269000DBD04FF4807372B683F31188BFF36F8F72
:1026A000BFF34F8F62B6FEE7E26B012ACFD04FF443
:1026B000807372B683F31188BFF36F8FBFF34F8FB0
:1026C00062B6FEE70025DFF85C81DFF85CA1DFF889
:1026D000349141E00025F6E7324639462046474B23
:1026E0009847A36C93B131462046454B984738B183
:1026F0004FF08052434B1A60BFF34F8FBFF36F8F81
:10270000414B9847012005B0BDE8F08F636A73B173
:1027100004F124003D4B98470028F1D04FF080523F
:10272000384B1A60BFF34F8FBFF36F8FE8E7002875
:10273000E6D04FF08052334B1A60BFF34F8FBFF398
:102740006F8FDDE7304B98470020DCE72046304BA9
:102750009847304B98470125C047A26BE36B9A42DC
:10276000BAD3022EB8D0019B002BEBD00DB902A832
:10277000D047254B9847284B9847C04794F844309A
:102780005BB2B3F1FF3F02D1002384F8443094F8E8
:1027900045305BB2B3F1FF3F02D1002384F84530EE
:1027A000194B984701A902A81C4B9847E0B9C047AC
:1027B000D4F838B0E56B144B9847AB45C6D10199B6
:1027C00004F11000164B98472046114B9847114BC7
:1027D00098470028BFD14FF08053C9F80030BFF3AD
:1027E0004F8FBFF36F8FB6E72046094B9847094BD1
:1027F0009847002087E700BFF934400029234000B4
:10280000A523400004ED00E0B120400095334000D6
:1028100059244000F9304000B12F400055344000A9
:102820000D33400065204000293440002DE9F84375
:10283000002839D00446002941D0022B4DD01F4634
:10284000904689463A4B9847EFF311864FF48073D0
:1028500072B683F31188BFF36F8FBFF34F8F62B6E9
:10286000A26BE36B9A4201D3022F58D194F84550E2
:102870006DB23A46494620462E4B9847B5F1FF3F88
:1028800047D1A36C002B36D0394620462A4B9847B7
:10289000B8F1000F45D0002843D00120C8F800004F
:1028A00086F31188BDE8F8834FF4807372B683F322
:1028B0001188BFF36F8FBFF34F8F62B6FEE7006CD6
:1028C0000028BAD04FF4807372B683F31188BFF337
:1028D0006F8FBFF34F8F62B6FEE7E06B0128AED07B
:1028E0004FF4807372B683F31188BFF36F8FBFF319
:1028F0004F8F62B6FEE7636AABB104F124000F4B61
:102900009847B8F1000F10D078B10120C8F8000046
:10291000C6E76B1C5BB284F845300120C0E700209D
:10292000BEE70120BCE70120BAE70120B8E700BFFD
:102930004D22400029234000A5234000953340004C
:1029400070B170B50446036CABB14FF4807372B6CE
:1029500083F31188BFF36F8FBFF34F8F62B6FEE72B
:102960004FF4807372B683F31188BFF36F8FBFF398
:102970004F8F62B6FEE703683BB30E46264B98477F
:10298000EFF311854FF4807372B683F31188BFF3B0
:102990006F8FBFF34F8F62B6A26BE36B9A4233D255
:1029A00094F845305BB20132A263B3F1FF3F25D109
:1029B000A36CC3B100212046184B984736B328B307
:1029C0000120306085F3118870BD4368002BD4D09E
:1029D0004FF4807372B683F31188BFF36F8FBFF328
:1029E0004F8F62B6FEE7636A93B104F124000C4B8B
:1029F00098477EB170B101203060E3E701335BB2EC
:102A000084F845300120DDE70020DBE70120D9E72D
:102A10000120D7E70120D5E74D224000A523400043
:102A2000953340002DE9F04F85B0019298B10446EE
:102A3000E1B198460F466B4B984728BB019B5BB3AF
:102A40004FF4807372B683F31188BFF36F8FBFF3B7
:102A50004F8F62B6FEE74FF4807372B683F311882E
:102A6000BFF36F8FBFF34F8F62B6FEE7026C002A91
:102A7000DFD04FF4807372B683F31188BFF36F8F8A
:102A8000BFF34F8F62B6FEE74FF00009564DDFF8F7
:102A900088B1DFF864A162E04FF00009F6E7E5686D
:102AA00039462046514B9847B8F1000F1BD1013EE3
:102AB000A663236813B94E4B98476060236963B1DE
:102AC00004F110004B4B984738B14FF080524A4BFD
:102AD0001A60BFF34F8FBFF36F8F484B98470120A9
:102AE00005B0BDE8F08FE560636A002BF5D004F116
:102AF0002400404B98470028EFD04FF080523E4BC7
:102B00001A60BFF34F8FBFF36F8FE6E73B4B9847D9
:102B10000020E5E702A8D8472BE0002384F84430E2
:102B200032E0002384F8453034E0A8476068344B35
:102B30009847324B98473EE02046324B9847324BFD
:102B400098470AE020462F4B98472F4B9847A847B5
:102B5000A66B2A4B9847002E42D04FF00109A84798
:102B6000A66B002E9BD1019B002BCFD0B9F1000F9B
:102B7000D0D0224B9847254B9847A84794F844302B
:102B80005BB2B3F1FF3FC8D094F845305BB2B3F10C
:102B9000FF3FC6D0194B984701A902A81C4B984784
:102BA0000028CFD1A847A66B144B9847002EC3D15D
:102BB0002368002BB9D0019904F12400154B9847E4
:102BC0002046104B9847104B98470028C5D14FF02E
:102BD0008053CAF80030BFF34F8FBFF36F8FBCE74D
:102BE00000207DE7F934400065204000312440009A
:102BF000453640009533400004ED00E0B120400030
:102C00001935400059244000F9304000B12F4000F0
:102C1000553440000D3340002934400070B504465F
:102C20000D461646124B984794F844305BB2B3F108
:102C3000FF3F0DD094F845305BB2B3F1FF3F0BD0AE
:102C40000C4B9847A36B5BB120460B4B984770BD6C
:102C5000002384F84430EDE7002384F84530EFE7A3
:102C60003246294604F12400044B9847ECE700BFA4
:102C700065204000B1204000592440004D33400001
:102C8000064807494FF08052836A012BFDD90A603C
:102C9000BFF34F8FBFF36F8FF6E700BFE40A40200A
:102CA00004ED00E0094BD3F88C301B6843B1074BAF
:102CB000D3F88C20D268D2685268C3F8902070474D
:102CC0004FF0FF32014BC3F890207047E40A4020D8
:102CD00070B504460E46194BD3F89450D3F89800BB
:102CE0000430174B9847B4F1FF3F00D1AEB92C44E4
:102CF000124BD3F898305C60A54215D80F4DD5F82B
:102D00008C00D5F8981004310E4B9847D5F89030C8
:102D10009C4201D2C5F8904070BD0848D0F8981088
:102D20000431094B984770BD044BD3F89C00D3F88D
:102D300098100431034B984770BD00BFE40A40204F
:102D4000791F4000451F40002D1F40002DE9F04F26
:102D500083B083460D460193DDF834A096003046DB
:102D6000664B9847002800F0968007465420634B36
:102D700098470446002800F08B8007633246A5215F
:102D800038465F4B9847043E236B1E4426F00706E7
:102D90002B7884F834302B785BB12B4604F1350264
:102DA000E91D587802F8010B13F8010F08B1994298
:102DB000F7D1002784F83B700C9D042D28BF042513
:102DC000E5626564A76404F104084046DFF85491A5
:102DD000C84704F11800C8472461C5F10505A5617D
:102DE0006462E76484F85070019A59463046454B56
:102DF00098472060BAF1000F01D0CAF80040424B5A
:102E00009847424BD3F8A0200132C3F8A020D3F852
:102E10009830002B42D03D4BD3F8CC304BB93B4BD4
:102E2000D3F89830DA6AE36A9A4202D8374BC3F88B
:102E30009840364AD2F8D0300133C2F8D030E3633C
:102E4000E36AD2F8D420934202D9304AC2F8D4308F
:102E50002E4D05F1280003EB8303414600EB830070
:102E60002B4B98472B4B9847D5F8CC30002B3FD0B5
:102E7000D5F89830DA6AE36A9A423DD24FF0805230
:102E8000254B1A60BFF34F8FBFF36F8F012030E0E7
:102E90003846224B98474FF0FF302AE01B4BC3F8CF
:102EA0009840D3F8A030012BC3D1184D05F128006C
:102EB0001B4EB04705F13C00B04705F15000B0474C
:102EC00005F16400B04705F17800B04705F1A409A9
:102ED0004846B04705F1B8073846B04705F1140039
:102EE000B0472846B047C5F88C90C5F89C70A0E75D
:102EF000012003B0BDE8F08F0120FAE7AD224000C9
:102F0000F34440001120400065204000E40A4020C6
:102F10002D1F4000B120400004ED00E00D234000D3
:102F2000111F4000271F400010B582B0194B0193BC
:102F300000230093402218491848194CA047012843
:102F40000BD028BB4FF4807372B683F31188BFF3A4
:102F50006F8FBFF34F8F62B6FEE7124B9847012881
:102F6000EFD14FF4807372B683F31188BFF36F8F84
:102F7000BFF34F8F62B60C4B4FF0FF32C3F8902077
:102F80000122C3F8CC200022C3F89420074B9847B5
:102F900002B010BDC00B4020B8454000812C40005D
:102FA0004D2D4000F9364000E40A402091214000B8
:102FB000034AD2F8D8300133C2F8D830704700BF86
:102FC000E40A4020014BD3F894007047E40A402003
:102FD0002DE9F047444BD3F8D830002B74D1424B45
:102FE000D3F894600136C3F89460F6B9D3F88C3006
:102FF0001B6853B14FF4807372B683F31188BFF32B
:103000006F8FBFF34F8F62B6FEE7374BD3F88C203C
:10301000D3F89C10C3F88C10C3F89C20D3F8E020A0
:103020000132C3F8E020314B98472F4BD3F8903052
:103030009E420DD200242C4BD3F89820D26A02EB8A
:10304000820203EB82039B6A022B28BF012442E029
:103050000024254DDFF89C8005F1280A17E04FF089
:10306000FF32214BC3F89020E5E71F4AC2F89030A9
:10307000E1E700EB800049460AEB80001C4B9847D3
:10308000D5F89830FA6ADB6A9A4228BF0124D5F84D
:103090008C301B68002BE2D0D5F88C30DB68DF6801
:1030A0007B689E42E1D307F104094846C047BB6AEA
:1030B00013B107F11800C047F86AD5F8D430984228
:1030C000D7D9C5F8D400D4E7074AD2F8E4300133A1
:1030D000C2F8E4300024044BD3F8E830002B0CBFD6
:1030E00020460120BDE8F087E40A4020A52C4000DE
:1030F0002D1F4000791F40003B4BD3F8D83053B907
:103100004FF4807372B683F31188BFF36F8FBFF3F0
:103110004F8F62B6FEE72DE9F041344B9847324BB2
:10312000D3F8D820013AC3F8D820D3F8D830002BF0
:1031300055D12D4BD3F8A0302BB900242C4B9847F8
:103140002046BDE8F0810025274C2A4E04F12808CE
:103150006369FBB1236ADD6805F11800B0472F1DD4
:103160003846B047E86AD4F8D430984201D9C4F858
:10317000D40000EB8000394608EB80001E4B9847D6
:10318000D4F89830EA6ADB6A9A42E1D30123C4F8A2
:10319000E830DDE70DB1194B9847134BD3F8E44005
:1031A0007CB1174F1E46012501E0013C05D0B84710
:1031B0000028FAD0C6F8E850F7E700220A4BC3F817
:1031C000E420094BD3F8E8305BB14FF080520D4B4F
:1031D0001A60BFF34F8FBFF36F8F0124AEE7002457
:1031E000ACE70024AAE700BFE40A402065204000C5
:1031F000B1204000791F40002D1F4000A52C400049
:10320000D12F400004ED00E010B5C0B10446104BD2
:10321000D3F8D83053B14FF4807372B683F311886A
:10322000BFF36F8FBFF34F8F62B6FEE7094B98472E
:1032300000212046084B9847084B984738B94FF073
:103240008052074B1A60BFF34F8FBFF36F8F10BDD3
:10325000E40A4020B12F4000D12C4000F93040005A
:1032600004ED00E0274BD3F8D8301BBB254A0023E0
:10327000C2F8E830D2F8D43003EB830102EB8102CC
:10328000926AE2B95BB103EB83011F4A02EB810250
:10329000013B52F8141C91B9143A002BF8D14FF4A9
:1032A000807372B683F31188BFF36F8FBFF34F8FB4
:1032B00062B6FEE70122134BC3F8E820704710B452
:1032C000104A9900C81802EB8000C46A6468C4629E
:1032D00019440246303294420DD00A4A03EB83016E
:1032E00002EB8101C96AC968C2F89810C2F8D430EB
:1032F0005DF8044B70476068024A02EB8102D062BD
:10330000EBE700BFE40A40200C0B402050B94FF41B
:10331000807372B683F31188BFF36F8FBFF34F8F43
:1033200062B6FEE710B50C46054BD3F8981018317D
:10333000044B984701212046034B984710BD00BF1E
:10334000E40A4020451F4000D12C400038B580B130
:1033500014460D460C4BD3F8981018310B4B984778
:10336000002C21460CBF28464FF0FF30084B9847F1
:1033700038BD4FF4807372B683F31188BFF36F8F3B
:10338000BFF34F8F62B6FEE7E40A40202D1F4000D6
:10339000D12C400038B5C368DC684CB304F1180583
:1033A00028461C4B98471C4BD3F8D8305BBB251DD7
:1033B0002846184B9847E06A174BD3F8D430984208
:1033C00002D9154BC3F8D40000EB80002946134BFB
:1033D00003EB8000124B98470F4BD3F89830E26A0A
:1033E000DB6A9A4214D901200B4BC3F8E80038BDC0
:1033F0004FF4807372B683F31188BFF36F8FBFF3FE
:103400004F8F62B6FEE729460648054B9847E3E72B
:10341000002038BD791F4000E40A40200C0B4020FA
:103420002D1F4000F80A402038B1094AD2F8E010B8
:103430000160D2F89420426070474FF4807372B6F6
:1034400083F31188BFF36F8FBFF34F8F62B6FEE730
:10345000E40A402038B5D0B1044619B30D461E4BDE
:1034600098471E4BD3F894202B68B3F1FF3F2FD021
:103470001A49D1F8E0102068884202D061688A4277
:1034800028D26168501A834217D801241CE04FF4F7
:10349000807372B683F31188BFF36F8FBFF34F8FC2
:1034A00062B6FEE74FF4807372B683F31188BFF300
:1034B0006F8FBFF34F8F62B6FEE79B1A0B442B60F2
:1034C0002046074B98470024064B9847204638BDB6
:1034D0000024F9E70124F7E765204000E40A4020D2
:1034E00029344000B12040000122024BC3F8E820FB
:1034F000704700BFE40A4020064BD3F8CC303BB104
:10350000044BD3F8D830002B0CBF022000207047AA
:1035100001207047E40A4020002839D038B505461C
:10352000C26A1C49D1F89810C96A8A4216D28169C8
:10353000002906DB1749D1F89810C96AC1F10501C5
:10354000816102EB8202144901EB820269699142B6
:1035500005D0104AD2F89820D26AEA6238BD2C1DF4
:1035600020460E4B98470B4BD3F89820D06AE86260
:10357000D3F8D430984202D9064BC3F8D40000EBFC
:1035800080002146044B03EB8000054B984738BD73
:10359000704700BFE40A40200C0B4020791F400018
:1035A0002D1F4000002840D038B50446214AD2F8EB
:1035B000982090420AD04FF4807372B683F311883A
:1035C000BFF36F8FBFF34F8F62B6FEE7826C52B9C5
:1035D0004FF4807372B683F31188BFF36F8FBFF31C
:1035E0004F8F62B6FEE7013A8264C06A616C88421E
:1035F0001DD0E2B9251D28460F4B9847606CE0624C
:10360000C0F10503A3610B4BD3F8D430984202D923
:10361000084BC3F8D40000EB80002946074B03EBAE
:103620008000074B9847012038BD002070470020DC
:1036300038BD00BFE40A4020791F40000C0B402039
:103640002D1F4000064BD3F898302BB1044BD3F814
:103650009820936C01339364014BD3F89800704722
:10366000E40A402008B54160006191420CD8D21AAA
:1036700083699A4201D3012008BD011D094B1868D6
:10368000094B9847002008BD9A4203D2994201D3C2
:10369000012008BD011D034B5868034B98470020CB
:1036A00008BD00BFD00B4020451F4000F8B50D4BB2
:1036B00098470D4B9B6813B10C4B9847F8BD0A4CCB
:1036C00004F10C0630460A4FB84704F1200528469D
:1036D000B8476660256000220C210220054B984700
:1036E000A060E9E765204000D00B4020B1204000F9
:1036F000111F40009525400010B582B00E4B984731
:103700000E4B9B6863B10E4B019302230093002381
:1037100040220C490C480D4CA04708B102B010BD26
:103720004FF4807372B683F31188BFF36F8FBFF3CA
:103730004F8F62B6FEE700BFAD364000D00B402091
:10374000040C4020D0454000713840004D2D400011
:10375000D8B130B585B015460446154A906820B3F7
:103760001A46019102950394052919DC114B9847DB
:1037700002284FF000030CBF089A1A4601A90C4812
:1037800080680D4CA04705B030BD4FF4807372B611
:1037900083F31188BFF36F8FBFF34F8F62B6FEE7DD
:1037A000002301A9054CA047EDE70020EBE700BF8F
:1037B000D00B4020F93440003D2640002D28400029
:1037C0002DE9F04782B08046244B98470746244BAA
:1037D0009B6B98421BD30023C8F80030204B9F639B
:1037E000384602B0BDE8F087002100910B465246F2
:1037F00020461C4CA04760B94FF4807372B683F327
:103800001188BFF36F8FBFF34F8F62B6FEE7144D81
:10381000154E6B681A68C2B1DB68D3F800A0DC688B
:1038200004F104094846B047636A20469847E369B3
:10383000012BEED1A36953449A45D5D2636024612C
:1038400049466868094B9847E3E7054A11685160A3
:1038500013600123C8F80030C0E700BFC52F400047
:10386000D00B402051374000791F4000451F4000D9
:103870002DE9F04786B06B4C6B4FDFF8CC91DFF849
:10388000CC8163681A68002A00F0BD80DB681D687F
:10389000B84703A8654B98470646039B002B43D1C6
:1038A000A84211D20022A91BA068614B9847614B26
:1038B000984700283AD14FF08053C9F80030BFF341
:1038C0004F8FBFF36F8F31E05A4B98476368DB68C7
:1038D000D3F80CA00AF10400C047DAF81C30012B21
:1038E00004D0DAF82430504698471FE0DAF8181070
:1038F0002B463246294450464F4EB0470028F0D060
:10390000002100910B462A4650464C4DA8470028FE
:10391000E7D14FF4807372B683F31188BFF36F8FD2
:10392000BFF34F8F62B6FEE7424B9847444D0023EA
:103930001A4603A9A068A8470028A2D0039B002B21
:10394000F5DB059E73690BB1301DC04702A8374BEC
:103950009847039B092BEAD801A252F823F000BF35
:103960008939400089394000893940002F394000A9
:10397000D5394000FF39400089394000893940007D
:103980002F394000D5394000049DB1692B460246CD
:1039900029443046284DA8470028C7D0736A3046CE
:1039A0009847F369012BC1D1B269002100910B4600
:1039B000049802443046214DA8470028B6D14FF460
:1039C000807372B683F31188BFF36F8FBFF34F8F8D
:1039D00062B6FEE70499B16131B103460246014483
:1039E0003046154DA847A1E74FF4807372B683F3B4
:1039F0001188BFF36F8FBFF34F8F62B6FEE730467B
:103A0000104B984792E7B84703A8084B98470646DB
:103A1000039B002B88D123681A68B2FA82F25209FC
:103A2000002540E7D00B4020B12F4000C1374000B7
:103A30001D2C4000F93040006536400051374000F1
:103A4000252A40000D23400004ED00E0791F4000CE
:103A5000F0B583B00B78C3F34114012C5ED18C8890
:103A6000354D2D78A54203D0334D6D78A54258D100
:103A700016460C46054613F0800F0CD1CF882F4B0D
:103A8000984701466378202B13D0222B32D06FF059
:103A90000C0003B0F0BD012A46D04B78212B45D154
:103AA000CB88072B45D1002307222549254CA04769
:103AB000EFE7072F2BD1BEB1006800908A888B7981
:103AC000ADF804208DF806301B4B1B6913B1684616
:103AD0009847F8B1184B02AA12E90300986099813F
:103AE000090C99730020D4E7002307222846154CBF
:103AF000A047CEE700231A4619461846114DA8479D
:103B00000D4B5B6943B1608898470020C1E74FF0D7
:103B1000FF30BEE70020BCE70020BAE76FF00900E5
:103B2000B7E76FF00900B4E70020B2E76FF00C00D0
:103B3000AFE74FF0FF30ACE70C0C402009434000EA
:103B4000140C40203D3F40002DE9F04F83B0164655
:103B500001296CD041B102290CBF6FF01A006FF03F
:103B60000C0003B0BDE8F08F1368002B00F08A80D2
:103B70009A78597901F0F701022940F08680D0F84F
:103B800008A09AF800108A4200F08280FF2940F0D5
:103B90008280D3460AF102010191484FDFF82C914F
:103BA000DFF82C8118460BF8012B05227168444B75
:103BB00098470446D8B1A5786379227902EB0322AD
:103BC00092B2E1782846B847002870D115F0800FEE
:103BD00014BF8BF801508AF804502846C847346057
:103BE000207871682044C04704460028E3D1336838
:103BF0001878042271681844314B9847019B5B4543
:103C000010D000284AD08278437903F0F703022BC2
:103C100047D19BF800309A4246D0FF2BC3D06FF0BB
:103C20001B009EE70122274B5A71002099E7846808
:103C30002AB113685B7903F0F703022B3AD123789A
:103C4000FF2B08D0FF232370A078984203D01E4B8F
:103C50009847FF23A3706378FF2B08D0FF2363707E
:103C6000E078984203D0184B9847FF23E3702079FF
:103C7000FF2803D0144B9847FF2323710020114BDA
:103C800058716EE76FF009006BE76FF0090068E7A5
:103C90006FF0110065E76FF01B0062E76FF009003D
:103CA0005FE76FF009005CE76FF0110059E76FF014
:103CB000130056E76FF0090053E700BF51094000B9
:103CC000294340000C0C4020B9094000E5094000A0
:103CD0006343400008B50A4B984701280CD80948AF
:103CE000094BC36100621830084B9847084901200E
:103CF000084B9847002008BD6FF0100008BD00BFBA
:103D0000154340000C0C4020493B4000B5424000A8
:103D1000040040202142400070B5074B1C694CB1A3
:103D200000260125636832462946204698472468C4
:103D3000002CF7D170BD00BF300C402070B5064696
:103D40000D46074BDC681CB970BD2468002CFBD005
:103D50006368002BF9D0294630469847F5E700BF45
:103D6000300C4020F8B507460E4615460B4B9C68B4
:103D70001CB90020F8BD246864B16368002BFAD038
:103D80002A4631463846984730B110F10A0FF2D032
:103D90000020F8BD0020F8BD0120F8BD300C402007
:103DA00010B5064B5C681CB910BD2468002CFBD014
:103DB0006368002BF9D09847F7E700BF300C40202C
:103DC0002DE9F04383B0164629B1012965D00020C2
:103DD00003B0BDE8F0835378052B4FD0092BF6D103
:103DE0005288D2B2304BDA7662B9304B984773883A
:103DF000002B14BF042103212B4B997601202C4B5F
:103E00009847E4E7284B1B6859681868294B98477E
:103E10000028ECD0C278817801EB022110FA81F100
:103E200001910422244B984700900028DFD0FF2402
:103E3000DFF87480204F0CE04C4600E04C460098C0
:103E400003781844009004220199B8470090002894
:103E5000CDD090F80290A145F1D0D8F81040002CB8
:103E6000EAD0002563686A4629462046984700281C
:103E7000E4D02468002CF5D14C46E0E75088C0B26D
:103E80000E4B98477388002B14BF03210221064B69
:103E900099760120064B984799E701223146002088
:103EA000074B984793E700BF300C4020193D400076
:103EB0003D3D4000A94340002943400045094000E2
:103EC000653D400070B50D4B98470D4D0226AE760E
:103ED0000024EC7620460B4B9847287F0A4B9847E6
:103EE0000A4A214620460A4DA8470A4A314620463A
:103EF000A8472046084B984770BD00BF193D4000B9
:103F0000300C4020B9094000A50940005D3F400049
:103F1000B50B4000C13D4000E509400008B510B1B7
:103F2000012804D008BD0020024B984708BD024B71
:103F3000984708BD3D3D4000C53E400000B585B0F6
:103F4000019102928DF80C008DF80D3001A8024B02
:103F5000984705B05DF804FB310A40002DE9F041B7
:103F600082B006460C460022A64B9847054630B95B
:103F7000237813F0E00206D0802A00F089802846DA
:103F800002B0BDE8F0816278013A0A2AF7D801A1AF
:103F900051F822F0D53F40007F3F4000F13F400004
:103FA0007F3F4000C13F40007F3F40007F3F4000D7
:103FB0007F3F4000C13F40007F3F40000D40400038
:103FC00001230022114630468F4CA047B0FA80F5FD
:103FD0006D09D4E703F01F03022BD0D1E388002B37
:103FE000CDD1A0880021C0B2884B98470125C6E7F3
:103FF00003F01F03022BC2D1E388002BBFD1A0889E
:104000000121C0B2814B98470125B8E76788A48891
:104010007F4B1B68186800905968019104227D4B02
:10402000984703460028AAD04FF00408794E09E0CB
:10403000009803781844009042460199B04703461F
:1040400000289CD09A78A242F2D1DA78BA42EFD115
:1040500000936F4B1C69002C91D0012663686A465F
:1040600031462046984718B12468002CF6D186E7DF
:1040700063686A4600212046984700287FF47FAF96
:1040800000231A46194618465F4CA047012576E7DB
:1040900062780A2A3FF673AF01A151F822F000BFFF
:1040A000874140007F3F40007F3F40007F3F40000E
:1040B0007F3F40007F3F4000CD4040007F3F4000B9
:1040C0006F4140007F3F4000CB414000E78863885C
:1040D000DAB24F49097F013939420CBF012400246B
:1040E0001B0A022B11D0032B2BD0012B7FF447AFDF
:1040F000474B196800233A46122F28BF122209683D
:104100003046414CA047012539E7414B1B6801323D
:10411000D2B259681868404B9847014600283FF4CE
:104120002EAFC278837803EB02239BB29F4201D962
:1041300025461F462B463A463046334CA0470125BC
:104140001DE7334B1B6859681868344B9847014684
:1041500000283FF414AF03789F4201D925461F463B
:104160002B463A463046284CA047012507E7284908
:104170004B69CA7E1A700023012249693046224CDD
:10418000A0470125FBE603F01F03012B0ED9022BEC
:104190007FF4F5AEA0880221C0B21C4B98470028DE
:1041A000FFF6EDAE00F00100009001E00023009367
:1041B00017494B69BDF800201A8000230222496983
:1041C0003046114CA0470125D9E6114B1E69002E3F
:1041D0003FF4D5AE022773682246394630469847E9
:1041E000002803DA3668002EF5D1C8E608494B6985
:1041F00018700023012249691846034CA047012585
:10420000BDE600BF653D40003D3F4000510B400012
:10421000300C402029434000A94340001144400095
:1042200008B5012807D010B1022808D008BD0648FB
:10423000064B984708BD0648044B984708BD0548FB
:10424000024B984708BD00BF340C4020290C4000A9
:10425000380C40203C0C402038B5054640F29922ED
:104260000C49003018BF01200B4B98470B4B984767
:1042700000280EDB0A4C202200212046094B9847DB
:10428000656109490020094CA04709490120A04760
:10429000002038BDD8454000010C4000B90840005E
:1042A000300C4020F3444000A13D40002109400073
:1042B0001D3F400008B501460148024B984708BD24
:1042C000400C4020290C400008B50A4B9B7E5BB98E
:1042D00068B1084B18600268D2791A7701229A7681
:1042E000054B9847002008BD6FF0030008BD6FF034
:1042F000080008BD300C40202D09400008B5014BD6
:10430000984708BD39094000014B5869704700BF04
:10431000300C4020034B987E00F01003002B18BF98
:1043200010207047300C4020884214D20378012BB3
:1043300013D910B4447894420AD01844814206D963
:104340000378012B0BD944789442F6D100E0002089
:104350005DF8044B70470020704700207047002034
:10436000F6E7884216D20378012B15D94278042A41
:1043700014D0052A0BD01844814209D90378012BA7
:104380000ED94278042A0DD0052AF4D10BE07047EB
:1043900000207047002070470020704700207047C1
:1043A000002070470020704738B50C4615460222A1
:1043B000164B98470346E8B184421DD90278012A7A
:1043C0001CD94278022A1BD14279AA4212D0D9784C
:1043D0009A7802EB012213FA82F39C4209D91A78E7
:1043E000012A0FD95A78022A0ED15A79AA42EED15F
:1043F00000E00023184638BD0023FBE70023F9E75F
:104400000023F7E70023F5E70023F3E72943400003
:10441000884217D22DE9F0410D46164600244FF090
:1044200003080C4F42462946B847034670B100784E
:1044300001280AD9A64209D0184401348542F1D88E
:10444000002303E000231846704700231846BDE808
:10445000F08100BF2943400008B50548054B984747
:10446000054B98470548064B9847064B984708BDAB
:10447000900C402059424000D53C40000C004020A8
:10448000C9424000FD42400008B5014B984708BDB5
:104490005944400070B50D4E0D4CA41BA4100025CE
:1044A000A54209D10B4E0C4C00F0A2F8A41BA4109D
:1044B0000025A54205D170BD56F825309847013535
:1044C000EEE756F8253098470135F2E7FC45400005
:1044D000FC454000FC4540000046400010B5431E2E
:1044E0000A44914200D110BD11F8014B03F8014F6D
:1044F000F7E702440346934200D1704703F8011BDB
:10450000F9E700002E2E2F68616C2F7372632F68FD
:10451000616C5F7370695F6D5F6F732E6300000085
:104520002E2E2F68616C2F7574696C732F737263F4
:104530002F7574696C735F6C6973742E630000006F
:104540002E2E2F68706C2F7370692F68706C5F73DC
:1045500070692E63000000002E2E2F68706C2F757E
:10456000736268732F68706C5F75736268732E6313
:10457000000000004C656400436F6E736F6C650053
:104580002E2E2F746869726470617274792F525480
:104590004F532F6672656572746F732F467265652F
:1045A00052544F5356382E322E332F72746F735F1E
:1045B000706F72742E63000049444C450000000087
:1045C0000925630925750925750925750D0A00005A
:1045D000546D7220537663002E2E2F7573622F64F4
:1045E00065766963652F75736264632E63000000EE
:1045F000F8B500BFF8BC08BC9E4670476501400096
:10460000F8B500BFF8BC08BC9E46704741014000A9
:10461000AAAAAAAA00000000513A400014004020B3
:10462000690040201201000202000040EB03042454
:10463000000100000001090243000201008032096C
:1046400004000001020200000524000110052401FD
:10465000010004240202052406000107058303402B
:10466000000A09040100020A0000000705020240D6
:0C4670000000070581024000000000006F
:0400000500400000B7
:00000001FF
