:020000040040BA
:1000000030064020C1014000BD014000BD0140005C
:10001000BD014000BD014000BD01400000000000E6
:10002000000000000000000000000000BD014000D2
:10003000BD01400000000000BD014000BD014000C6
:10004000BD014000BD014000BD014000BD014000B8
:10005000BD014000BD014000BD014000BD014000A8
:10006000BD01400000000000BD014000BD01400096
:10007000BD014000BD014000BD014000BD01400088
:10008000BD014000BD014000BD014000BD01400078
:10009000BD014000BD014000BD014000BD01400068
:1000A000BD014000BD014000BD014000BD01400058
:1000B000BD014000BD014000BD014000BD01400048
:1000C000BD014000BD014000BD014000BD01400038
:1000D00000000000BD01400000000000BD01400024
:1000E000BD014000BD014000BD014000BD01400018
:1000F000BD014000BD014000BD014000BD01400008
:10010000BD014000BD014000BD014000BD014000F7
:10011000BD014000000000000000000000000000E1
:10012000BD014000BD014000BD014000BD014000D7
:10013000BD01400000000000BD014000BD014000C5
:1001400010B5054C237833B9044B13B10448AFF311
:1001500000800123237010BD00004020000000003B
:10016000640740000C4B43B10C480D4910B5AFF388
:1001700000800C48036823B910BD0A48036833B9EE
:100180007047094B002BF7D0BDE810401847064BCD
:10019000002BF5D0184700BF0000000064074000A6
:1001A0000400402064074000000000007047000089
:1001B00008B5014B984708BDD1024000FEE700009A
:1001C00008B5174B174A9A4210D0174B144A9A4257
:1001D0000CD2013B9B1A23F003030433134411494F
:1001E00051F8040B42F8040B9A42F9D10F4B104A14
:1001F0009A420AD2013B9B1A23F0030304331344AF
:10020000002142F8041B9342FBD10A4A0A4B23F017
:100210007F039360094B9847094B9847FEE700BF5F
:1002200000004020640740000000402030004020D3
:100230000000402000ED00E000004000C906400042
:10024000B5064000114B1A6F42F480121A675A6FBC
:1002500022F480125A674FF480125A601A6F42F4E7
:1002600000121A675A6F22F400125A674FF40012F4
:100270005A601A6F42F480021A675A6F22F48002A1
:100280005A674FF480025A60704700BF00140E4056
:10029000044B9B6913F4001F03D14FF40012014B70
:1002A0001A61704700060E4008B5044B9847044990
:1002B0000448054B9847054B984708BD91024000FC
:1002C000008000401C0040205503400045024000D3
:1002D00008B5144B9847144B9B6913F4805F03D106
:1002E0004FF48052104B1A610F4B9B6913F4803FFF
:1002F00003D14FF480320C4B1A610C4A536843F41B
:10030000004353600A4B4FF480721A611A631A60FB
:1003100003F500734FF000721A611A631A60054BFF
:10032000984708BD6504400000060E4050180E4076
:1003300000120E40A9024000EFF31083036072B672
:10034000BFF35F8F7047BFF35F8F036883F310883D
:100350007047000038B504460D46002818BF002934
:1003600014BF01200020422209490A4B984725600A
:1003700029462046084B9847002807DB4FF40043E6
:100380002382064BE360064BA360002038BD00BF0C
:10039000100740005D044000450540002104400076
:1003A000E503400030B585B005460C46002818BF6F
:1003B000002914BF01200020BD220749074B9847A0
:1003C0002368019363680293A368039301A92846F5
:1003D000034B984705B030BD100740005D04400056
:1003E000CD05400070B584B00E4615460446AD22DA
:1003F0000849003018BF0120074B9847002302939B
:100400000196039501A9A4F10800044B984704B094
:1004100070BD00BF100740005D044000A503400010
:1004200070B584B00E461546044691220849003046
:1004300018BF0120074B98470296002301930395AC
:1004400001A9A4F10800044B984704B070BD00BF97
:10045000100740005D044000A503400000B900BE45
:100460007047000000B583B001A80E4B98470E4AB4
:10047000D2F8883043F47003C2F88830BFF34F8F4E
:10048000BFF36F8F01A8094B9847094A136823F4FB
:10049000706343F4A0631360064B984703B05DF8A4
:1004A00004FB00BF3903400000ED00E047034000BB
:1004B000000C0E40B90440001D490A6A22F00202F5
:1004C0001C4B13430B620A46936E13F0010FFBD0D3
:1004D000174B196A184A0A431A62996A174A0A405E
:1004E0009A62174A9A621A46936E13F0020FFBD073
:1004F0000F4A136B23F070031363936E13F0080F0E
:10050000FBD00B4A136B23F4407343F480731363E3
:10051000936E13F0080FFBD0054A136B23F003030F
:1005200043F002031363936E13F0080FFBD0704780
:1005300000060E40013E370000003701FFFF00F8C3
:10054000013F182038B505460C461B4B0B44C3F33E
:100550000743052B0DD14FF4A1721849002818BF8D
:10056000002C14BF01200020154B98476FF00C00A1
:1005700038BD4FF4A1721149002818BF002C14BFD8
:10058000012000200E4B9847236913F4803F0FD1C0
:10059000802323602C604FF000432360094B63608D
:1005A000094B23634FF6FF73EB800020287138BDA1
:1005B0006FF0100038BD00BF0080FFBF2C07400067
:1005C0005D04400011000E00029696042DE9F04FE4
:1005D00085B00390894604680B6802934D68034612
:1005E00090F804B0221C18BF01221046019240F27C
:1005F0003F222E49002B0CBF002000F001002C4BA5
:100600009847236913F4803F34D000273E46DFF833
:10061000A0A00FE001350137D4F810804FF40C7220
:1006200022490198D04718F0080F1AD1D9F808309C
:100630009E4212D2236913F0010F1ED0A3689BB211
:10064000002DE8D02B70BBF1010FE3D91B0A6B70B2
:100650000235E0E70132029224E0BB42EAD830469C
:1006600001E06FF01200236913F4007FFBD005B0A6
:10067000BDE8F08F6FF01300F9E7BE42CCD82369D4
:1006800013F0020FC8D0039BDB88029A52B1137893
:10069000BBF1010FDED902994A7843EA02230A46E8
:1006A000023202920136E360B6E700BF2C07400039
:1006B0005D04400008B5024B9847024B9847FEE79F
:1006C000B1014000AD01400070B50D4E0D4CA41BB2
:1006D000A4100025A54209D10B4E0C4C00F032F8B5
:1006E000A41BA4100025A54205D170BD56F82530E5
:1006F00098470135EEE756F8253098470135F2E77F
:100700005007400050074000500740005407400089
:100710002E2E2F68616C2F7372632F68616C5F736C
:1007200070695F6D5F73796E632E63002E2E2F6884
:10073000706C2F7370692F68706C5F7370692E63B3
:1007400000000000F8B500BFF8BC08BC9E4670472A
:1007500065014000F8B500BFF8BC08BC9E46704774
:040760004101400013
:0400000500400000B7
:00000001FF
